:1000000000800020BD010000B90B0000710B000052
:10001000710B0000710B0000710B0000710B0000F0
:10002000710B0000710B0000710B0000B90B000098
:10003000B90B0000710B00006D2000007121000061
:10004000B90B0000B90B0000B90B0000B90B0000A0
:10005000B90B0000B90B0000B90B0000B90B000090
:10006000B90B0000B90B0000B90B0000B90B000080
:10007000B90B0000B90B0000B90B0000B90B000070
:10008000B90B0000B90B0000B90B0000B90B000060
:10009000B90B0000B90B0000B90B0000B90B000050
:1000A000B90B0000B90B0000B90B0000B90B000040
:1000B000B90B0000B90B0000B90B0000B90B000030
:1000C000B90B0000B90B0000B90B0000B90B000020
:1000D000B90B0000B90B0000B90B0000B90B000010
:1000E000B90B0000B90B0000B90B0000B90B000000
:1000F000B90B0000892C0000B90B0000E1330000AF
:10010000B90B0000D5100000B90B0000B90B0000BE
:10011000B90B0000B90B0000B90B0000B90B0000CF
:10012000B90B0000B90B0000B90B0000B90B0000BF
:10013000B90B0000B90B0000B90B0000B90B0000AF
:10014000B90B0000B90B0000B90B0000B90B00009F
:100150000124000015240000292400003D24000093
:10016000B90B0000F9120000B90B0000B90B000038
:10017000B90B0000B90B0000B90B0000B90B00006F
:10018000B90B0000B90B0000B90B0000B90B00005F
:10019000B90B0000B90B0000B90B0000B90B00004F
:1001A000B90B0000B90B0000B90B0000B90B00003F
:1001B000B90B0000B90B0000B90B0000564B4CF214
:1001C000205210B51A804DF628121A8000BF00BFC9
:1001D00000F0F6FC514B4FF010621A60504A9A60E2
:1001E000504ADA60504A136813F4807304D14F49BF
:1001F0000B604FF4A85313604D4B1A78110703D5C9
:100200001A7842F008021A704A4B4B492A221A7097
:100210004A4A4B4B8B4204D252F8040F43F8040B6A
:10022000F8E7484B484900228B4202D243F8042B9E
:10023000FAE74649464A002352F8230041F82300D2
:1002400001336F2BF8D1434B434A802103F8011B44
:100250009342FBD1414B3D4A1A60414B8A221A70AE
:10026000A3F5805324225A70A0221A709A7992071B
:10027000FCD59A79D406FCD43A4A937903F00C035E
:10028000082B384BF9D103221A7140225A719A79FE
:100290009006FCD5334A9179324B4906FBD5324A58
:1002A000324911600221516020221A709A7902F0BD
:1002B0000C020C2AFAD12E4B2E4A1A602E4B2F4AD2
:1002C0001A6000225A60072243F8042C2C4AC3F813
:1002D0000C2D62B600F0A6FD144B1B68DA0705D59D
:1002E000284800F011FD284B284A1A60284B1B783B
:1002F0005B0609D5244C254B22689A4204D121483B
:1003000000F002FD0023236003F0A4FB00F05EFC7C
:1003100002F09EF8FEE700BF0E200540308004404A
:10032000823F04000100002B10D0034014D0034092
:1003300002D0074000E007404490FF1FFC46000049
:100340002087FF1F4490FF1F6096FF1F0082FF1F42
:100350000000000000E400E05FE400E008ED00E0E1
:100360000050064000400640448004400000030165
:1003700004800440C010050014E000E0FF76010096
:1003800000002020C49ACA5D1CE00340A5C3945A13
:1003900000F00740FFFFFFFFFFFFFFFFFFFFFFFF32
:1003A000FFFFFFFFFFFFFFFFFFFFFFFFFFFFFFFF5D
:1003B000FFFFFFFFFFFFFFFFFFFFFFFFFFFFFFFF4D
:1003C000FFFFFFFFFFFFFFFFFFFFFFFFFFFFFFFF3D
:1003D000FFFFFFFFFFFFFFFFFFFFFFFFFFFFFFFF2D
:1003E000FFFFFFFFFFFFFFFFFFFFFFFFFFFFFFFF1D
:1003F000FFFFFFFFFFFFFFFFFFFFFFFFFFFFFFFF0D
:10040000FFFFFFFFFFFFFFFFFFFFFFFFDEF9FFFF23
:1004100010B5054C237833B9044B13B10448AFF33E
:1004200000800123237010BD4490FF1F00000000D6
:1004300000470000084B10B51BB108490848AFF34E
:1004400000800848036803B910BD074B002BFBD0A0
:10045000BDE81040184700BF000000004890FF1F93
:10046000004700004490FF1F0000000000B501217C
:1004700083B00D2000F060FC00210D2000F056FC40
:100480000A4800F0DBF90A4800F0D8F94FF4707020
:1004900000F08AFD262000F0D7FD064A064B1268C0
:1004A0000192019A1A6003B05DF804FBB090FF1F3F
:1004B000EC91FF1F6893FF1F4C93FF1F10B5144B67
:1004C000197882B029B1012903D0022906D002B0DF
:1004D00010BD0D2000F02AFC02B010BD0D4C0D2007
:1004E000217800F023FC0C490C4A0B680093009B18
:1004F00010681B1AC82BEAD90B680193237801995D
:10050000116013B100232370E1E701232370DEE7BC
:100510006090FF1FAC90FF1F6893FF1F4C93FF1F5D
:100520002DE9F0410023254E1946F1540133182BD3
:10053000224AFAD10F23002401251370204F2346AD
:100540002146AE46B02204E00B2B1FD012F0FF0272
:1005500023D037F81400184101F1010C013310F0D9
:10056000010F0EFA01F802F1FF325FFA8CF1DBB2F3
:1005700004D0705D48EA0000C0B270550829E3D18C
:1005800001350B2BEDB24FF00001DFD1013412F039
:10059000FF02E4B24FF00003DBD13B8C012B08D00B
:1005A0007B8C012B03D1F37D43F00203F375BDE88F
:1005B000F081F37D43F00103F375F1E78C90FF1FA9
:1005C0006890FF1F2DE9F0410023254E1946F15494
:1005D0000133182B224AFAD10F230024012513706E
:1005E000204F23462146AE46B02204E00B2B1FD0FD
:1005F00012F0FF0223D037F81400184101F1010C6A
:10060000013310F0010F0EFA01F802F1FF325FFA28
:100610008CF1DBB204D0705D48EA0000C0B27055C6
:100620000829E3D101350B2BEDB24FF00001DFD1EA
:10063000013412F0FF02E4B24FF00003DBD13B8C37
:10064000012B08D07B8C012B03D1F37D43F00203F7
:10065000F375BDE8F081F37D43F00103F375F1E735
:100660008C90FF1F2893FF1F70B500F06BFB094EA5
:100670000446002500F066FB001B7B28FAD900F039
:1006800061FB0446705D013500F00AFD192DF1D1C2
:1006900070BD00BF8C90FF1FF0B5344D344C2B68FB
:1006A000226885B00193019B9B1AB3F5FA7F02D9AA
:1006B000304B00221A70304E304B314A31493248AB
:1006C0000027377000F08CF9304B3070304A3149D8
:1006D000314800F085F9314A3378107093B1304ACF
:1006E000012102F1100032F8023F643B9BB2B3F5E6
:1006F000166F88BF00219042F5D121BBFFF7DEFEC7
:1007000005B0F0BD0028F9D0254A012102F1100002
:1007100032F8023F643B9BB2B3F5166F88BF0021ED
:100720008242F5D10029E9D02B680393039A114B3B
:10073000226002221A70FFF745FFFFF795FFFFF7CF
:10074000BDFE05B0F0BD2B680293029A094B2260F2
:1007500001241C70FFF7E4FEFFF786FF21460D2001
:1007600000F0E4FAFFF7AAFE05B0F0BD6893FF1FA2
:10077000A890FF1F6090FF1F6390FF1F5093FF1F03
:100780006190FF1F6890FF1FB090FF1FA590FF1F93
:100790006290FF1F2893FF1FEC91FF1F6490FF1FC3
:1007A0006690FF1FF8B50C4F0C4E0D4D0D4C0E49C9
:1007B000384600F023F832462946384603F038F927
:1007C00020460A4900F01AF8324629462046BDE87C
:1007D000F84003F02DB900BFB090FF1F2087FF1F26
:1007E000D1080000EC91FF1F2C87FF1F3C87FF1FE3
:1007F00010B5044601F0E2FD204610BDF0B541F60B
:1008000058320F24DFF830E0C0F8381108270021F3
:10081000AC2640F2137582600422C0F800E080F834
:100820002870468585850471C47141714173827158
:1008300080F82720F0BD00BFA08601002DE9F84F09
:10084000B0F82A900024804604730546484602F01A
:1008500047FF35F82C7F8246384602F041FF51466B
:1008600002F08CFE014683464FF0804003F044F8CE
:100870004FF07C510646584602F08AFF514602F07E
:100880007FFE314600F1004002F082FF234608F16E
:100890006C0108F14C0408F1AC020233202B25F85E
:1008A000029F24F8027F41F8046F42F8040FF4D14C
:1008B000D8F83801D8F80010036836221B6A984728
:1008C000024BD8F838211A60BDE8F88F6493FF1FF7
:1008D00038B5D0F8F030054663B100241859043417
:1008E00018B103F0E7F8D5F8F030402CF6D11846EF
:1008F00003F0E0F8D5F8F43063B10024185904345B
:1009000018B103F0D7F8D5F8F430402CF6D11846DA
:1009100003F0D0F8284638BDF8B52F4E3368DB0712
:10092000044647D52D4D00F00DFA2B68A268C01A79
:1009300082423CBF0023237300260127D4F83801EC
:1009400003681B699847002832DD00F0FBF9D4F8F2
:10095000383128601A68184653699847237BC0B21B
:10096000A0738BB92379834202D026736073E5E7C5
:10097000627B6379934204D0E379A1791340994271
:10098000F3D127736073D9E7182B04DCE218013325
:10099000DBB290732373192BE8D16379834216D0AD
:1009A000E379A2791840824211D000202073F8BD6B
:1009B0000020F8BD304600F021F90028B2D000F048
:1009C000C1F9064D2860304600F01EF9ABE7002360
:1009D00023730120F8BD00BF5C93FF1F6093FF1FCE
:1009E0002DE9F0410D46174698460446FFF794FF5F
:1009F000002800F0A580002D00F08E80227CE37B93
:100A000043EA0223C3F30A032B80637C227C5B014D
:100A100043EAD203C3F30A036B80A27C637CE17CCC
:100A2000920042EA931343EA8123C3F30A03AB80A3
:100A3000237DE27CDB0143EA5203C3F30A03EB802C
:100A4000637D227D1B0143EA1213C3F30A032B814A
:100A5000A27D637DE17D520042EAD31343EA412344
:100A6000C3F30A036B81237EE27D9B0143EA920379
:100A7000C3F30A03AB81637E227EDB0043EA521399
:100A8000EB81E27EA37E43EA0223C3F30A032B82B7
:100A9000237FE27E5B0143EAD203C3F30A036B8246
:100AA000217F637FA27F9B0043EA911141EA82216B
:100AB000C1F30A01A982E37FA27FDB0143EA52036B
:100AC000C3F30A03EB8294F82030E27F1B0143EA70
:100AD0001213C3F30A032B8394F8216094F82010B7
:100AE00094F82230760046EAD11141EA4321C1F35D
:100AF0000A01698394F8233094F822209B0143EA89
:100B00009203C3F30A03AB8394F8243094F82320B0
:100B1000DB0043EA5213EB83B8F1000F08D094F8DE
:100B2000253094F82720134018BF012388F800309F
:100B300037B194F8253094F82820134002D13B7047
:100B4000BDE8F08101233B70BDE8F08130B4054B76
:100B5000054A0649802400251C711D60184630BCDA
:100B600002F066BF5493FF1F2087FF1FF1070000AC
:100B700008B5104C08E0236859050DD423681A0500
:100B80000FD42368DB0411D423685803F3D500F095
:100B9000B3FB23685905F1D502F076F823681A05EE
:100BA000EFD502F01DFC2368DB04EDD500F092FACE
:100BB000EAE700BF3480044008B5FFF7D9FF00BF63
:100BC000014B10221A80704700200540704700BF7B
:100BD000094908B50B6830B16A461844A2F580523D
:100BE000904202D20860184608BD02F02DFF0C2387
:100BF00003604FF0FF3008BD2487FF1F0078B0FA74
:100C000080F04009704700BF01230370704700BFA8
:100C1000EFF3138070B9EFF310836BB9EFF3058234
:100C20005AB94FF48070EFF311832BB1984228BF6B
:100C3000184670474FF0FF3070470F2A01D818460A
:100C4000F1E7014BD05CEEE7F0E300E010B40F4BAE
:100C500053F8302092F880422CB1012369B182F818
:100C6000803010BC704703EBC0035B681A6841B961
:100C700022F002021A6010BC704782F8003110BCEA
:100C8000704742F003021A6010BC7047B444000081
:100C90001C4A02EBC00301295B6811D004291BD058
:100CA00052F83000002280F8802229B1022920D099
:100CB000032922D01A6070474FF480721A6070477F
:100CC00052F830004FF4A27280F880121A601A684D
:100CD00022F020021A60704752F830104FF4A272CE
:100CE000012081F880021A601A6842F020021A601E
:100CF000704740F203121A6070474FF481721A6015
:100D0000704700BFB444000030B4054B054D064C9D
:100D1000002210211A602A602060196030BC7047E0
:100D200014D0034004D0034000D00340212801D850
:100D3000FFF78CBF704700BF212801D8FFF7A8BF7D
:100D4000704700BF72B60C490C4B0D4A1B6808680F
:100D5000126862B6520102D5322B88BF01300949B0
:100D6000C3F5BB334FF47A72FF33A1FB031302FBCD
:100D700000F000EB931070476893FF1F18E000E04D
:100D800004ED00E0ABAAAAAA2DE9F843054672B625
:100D9000204F214B214A1B683C68126862B6520101
:100DA00002D5322B88BF013495B3C3F5BB331C4E3B
:100DB000DFF86490DFF86480FF334FF47A72A6FBAB
:100DC000031302FB04F404EB931472B6D9F8001079
:100DD0003A68D8F800E062B6C1F5BB33FF33A6FB32
:100DE00003031EF0806FC4EB93134FF47A7002D0AC
:100DF000322988BF013200FB0233B3F57A7F04D376
:100E0000013D05D004F57A74DFE701F02BFBDCE748
:100E1000BDE8F8836893FF1F18E000E004ED00E0F0
:100E2000ABAAAAAAF8B52D4B2D49DFF8D0E0DFF820
:100E3000D0C02C4E2C4D2D4C2D4A2E4F4FF400007F
:100E400018604FF0807018604FF0007018604FF01D
:100E5000806018604FF00060186000200860282350
:100E60004BF6FF71CCF80010CEF800303360136001
:100E70002B6023603B60B3629362092245F8242C07
:100E8000C4F8D80F05F57F65C7F8D41F07F5FF270D
:100E900007F5FA67C6F8F83F2B6006F5FF26C4F899
:100EA000D42F05F5FD2504F5FF24386006F2F4760D
:100EB0001148316005F5FF6504F5FD642B60236082
:100EC000026001F01DFB1920FFF75EFF00F07CFFC0
:100ED00040F21310BDE8F840FFF756BF08E100E00C
:100EE0000480034014800340248003402C8003408E
:100EF0001C8003403480034000800B400C80034082
:100F0000088003402DE9F84F214B1B6807460BB1C1
:100F100001221A70DFF888901E4D99F80040DFF822
:100F200084801D4E0134272C8ABF4FF0000A5FFADF
:100F300084FA5446AB462B78A34216D1FFF768FEDD
:100F400040281FDC33791B06F5D59BF800300133B0
:100F5000272B86BF00221346DAB218F80330DBB223
:100F6000F3712A702B78A342E8D00C490A4BFFB2E8
:100F700008F804700120AC22087089F800A0DA702B
:100F8000BDE8F88FFF28D6DD01F06CFAD3E700BF8B
:100F9000E093FF1FDD93FF1F00C00640DC93FF1F9F
:100FA000E493FF1F7493FF1F1C4BDFF894C01A6873
:100FB0001B49F0B542F480521A4D1A60DFF884E004
:100FC000194F1A4E1A4C00238CF800304FF451720E
:100FD0002B701F2840F213358EF800303B703370B1
:100FE00025600A6012D819460124124A124D117068
:100FF0001248547000212C27402693724FF400347D
:1010000091701174D7702E700460F0BDC0F344313C
:10101000C0F3471400F01F03E7E700BF348004402B
:101020000CC004407193FF1FDD93FF1FDC93FF1F73
:1010300008C0044000C0064031E400E004E100E0E4
:101040007093FF1FE493FF1F144B14499B7803F028
:10105000EC0200F003031343420700F00F0248BF05
:1010600043F01003042A8B7013D00C4B0B4A5B79AE
:10107000C10603F0EF0348BF43F0100353719379A7
:10108000820603F0EF03054A48BF43F01003937153
:1010900070478B7943F040038B71E6E700C0064050
:1010A000034B1B68DB0401D5FFF72CBF704700BF63
:1010B00034800440054A064B10781B78C0B2DBB27E
:1010C000984238BF4030C01A704700BF7093FF1F6E
:1010D0007193FF1F30B42B4B1A7994061FD52A4801
:1010E000DA790378294901333F2B0978C8BF0023F7
:1010F0008B42D2B203D0264CD9B2E2540170254AB9
:10110000116861B1244A1278D2B2934236BFC2F15B
:1011100040029B1A9B18272BC4BF01230B70194A4E
:10112000D378DBB2180611D45A060DD5154B1B79AE
:101130005B0609D5194B1A491B6800220A7003B1D6
:101140001A70104B2C22DA7030BC704711790906E6
:10115000EAD5144910480C780178C9B28C420DD0F8
:101160004A1C272A84BF00210A460F4D054C98BF10
:10117000D1B2AA5CD2B2E2710170D5E76C21D17014
:10118000D2E700BF00C006407093FF1F7193FF1F9E
:101190009C93FF1F6C93FF1FDD93FF1FE093FF1FC6
:1011A000DC93FF1FE493FF1F7493FF1F30B472B6EC
:1011B0002B4A13781D0706D52A4B196A002936D009
:1011C000996A002941D053781C0706D5254B196C24
:1011D00000293ED0996C002939D09378190705D59C
:1011E000204B196E002936D0996E89B1D3781B0730
:1011F00007D51C4BD3F880207AB3D3F8882011216F
:101200003AB162B6184B00221A7030BC00F068BECA
:101210000D21154C154D227843F8315003EBC103D5
:101220000830013A5860227062B630BC7047042220
:101230000D4C0F4D217843F8325003EBC2030830B8
:101240004A1E5860227062B6EFE70521E1E70921E6
:10125000DFE70822ECE70C22EAE71022E8E700BF0C
:10126000844600000080FF1FBD94FF1FC80040009F
:1012700088004000431E032B1DD81B4A400140F04C
:10128000100030B4104472B6184CE25C032A1BD82C
:10129000DFE802F00212151703220D88E25410F065
:1012A000080F14BFC823882343EA054308310360AD
:1012B000416062B630BC704708300222EDE705227B
:1012C000EBE708300422E8E7094A52F8230038B176
:1012D000084A52F82300416042F8231062B6E9E759
:1012E00042F82310034AF7E70080FF1FCC94FF1F4A
:1012F0009494FF1FA494FF1F2DE9F04FDFF80CB367
:10130000DFF80CA387B044E0AB4F4FEA930807EB3C
:10131000C809013ED9F8042003F00803F6B2A2F18F
:10132000080003F0FF04002B40F0028157F838302A
:101330001B0C99B222F8081C002B00F0F0809F4B88
:1013400022F8064C42F8044C53F82620002A00F0FC
:10135000C5829B4D55F8263058609A4C45F82600BA
:1013600034F81630194424F8161000F099FD0028BE
:1013700000F0AD82944A954B19F0080F00F1080077
:1013800018BF1346C9F8040047F8383008238BF813
:1013900000309BF80040E4B261071AD58C4B1B78F3
:1013A000A3B18C490A7802F0FF0322B1013BDBB202
:1013B0000B7003B900BE88490A7802F0FF032AB116
:1013C000013BDBB20B70002B00F0578204238BF83B
:1013D000003004F0080303F0FF02002B00F0CC8083
:1013E0009AF80030DBB21E098ED19C08DFF8C89154
:1013F00059F8342009EBC401C2F38302013A496869
:101400000C2A00F28880DFE802F07C7C86868686E3
:1014100086864786868607000868704D4A68704F42
:10142000704E286081B240F28160674B6A604FF075
:10143000010E0022814249F834303A60C9F8102088
:10144000C9F8182086F800E05B4C00F2E380B1F5A3
:10145000D06F80F04683B1F5817F00F0FC8200F20E
:101460008D82802900F07783822940F0FA82A98852
:1014700001F07F01042900F2F4825B485B4C890093
:101480000844227062700278930740F1588484F80F
:1014900000E04FF0020E42E3514F3A6832B3544B32
:1014A000504E5449188834780D784028864645F0C7
:1014B000020828BF4FF0400E002C84F00104347065
:1014C000CEEB00000CBF8824C82409EBC80680B20C
:1014D00085F0010544EA0E447260188049F83840EE
:1014E00072440D70002800F045813A603B4B1A8829
:1014F000B2F5A06F0FD100219A7859703E4B1A7047
:1015000009E0364A108842F22102904200F0378109
:101510002D4A49F83420394A0123137036E72A4A04
:101520002A4B19F0080F18BF134647F838302DE73B
:1015300000F0D6FC324A334952F82630002B00F036
:10154000D18158688C5D42F8260003F10802C9F881
:101550000420032C05D8DFE804F02C0229260222FF
:101560008A551A8819F0080F0CBF8823C82343EA4C
:10157000024347F8383009E7E00700F1818121068E
:1015800000F1F281A20706D51F4A204913780220F4
:10159000DBB213700870E30602D51C4B10221A70E0
:1015A00007B0BDE8F08F04228A55DAE705228A5594
:1015B000D7E703228A55D4E70080FF1F4094FF1F1E
:1015C000EC93FF1F4896FF1FC800400088004000B2
:1015D000C894FF1F5194FF1FD094FF1FB494FF1FA6
:1015E000E893FF1F5094FF1FC0200740C094FF1FC7
:1015F000FC93FF1FBC94FF1F9820074094200740D6
:101600009494FF1FCC94FF1F882007408020074040
:101610009020074042F22100814200F02A8100F22E
:10162000D880B1F5086F00F07682B1F5106F40F008
:101630001882226AB349A8780870120600F13A832A
:10164000D9F82820B049130600F10C83D9F83020CE
:10165000AD49150600F10183D9F83820AA491406CE
:1016600000F1F682D9F84020A749100600F14A831C
:10167000D9F84820A449120600F13F83D9F8502038
:10168000A149130600F13483D9F858209E49150664
:1016900000F12983D9F860209B49140600F11E83CC
:1016A000D9F868209849100600F11383D9F8702002
:1016B0009549120600F10883D9F87820924913065B
:1016C00000F1FD82D9F880208F49150600F13183A1
:1016D000D9F888208C49140600F12583D9F8902088
:1016E0008949100600F11983D9F898208649120615
:1016F00000F10D838548864A864901908648874DCA
:10170000874C049700230596029580460F4616469F
:101710001D460394306828B1446800F0E1FB204680
:10172000002CF9D100233360029B38681A4600234D
:1017300042F8253028B1446800F0D2FB2046002C46
:10174000F9D100223A60019A98F80030114600223F
:1017500041F8042B039A0191023B4FF0000122F85B
:101760001510032B00F22B81DFE813F07001250127
:1017700070012501BEF1400F18BF0022B5E6694A8D
:101780000D784878157050708D78C8789570D07045
:1017900010680D79157186284D7989795571917187
:1017A00000F09B816049614E0A78307882F0010533
:1017B000002842F002020D700CBF8821C82149F8B0
:1017C000321009EBC20280F001000021307051603C
:1017D0009EE642F22120814240F0CB81544B554C91
:1017E0005549A8781D682560CDF804E008700020F0
:1017F00002908046844604464B490D7845F0020E1F
:1018000009EBCE030393019B002B039B5C600CBF91
:101810008824C82444EA080385F0010449F83E30CE
:1018200032700C70DFF8E0E0404BDFF8FC800028FD
:1018300040F01E81BCF1400F1BD144F0020C09EBBB
:10184000CC03029CDFF8C0E05C60002A40F02681F7
:10185000020442F088029DF804304EF83C20044413
:1018600033700D702346402803D10020334A3B607B
:101870001080334A012313704DE600F065FBA5E5A7
:10188000214B2F4828491A614FF0020E80F800E0E2
:101890002C4F0A702C49196099602C4E2C4D2D4C00
:1018A0009A610D213970FF213170DFF8B8E029709D
:1018B0002270294D294A8EF800109F27012406F82E
:1018C000047C5D600470DA6007B0BDE8F08F244AE4
:1018D00047F8380013780133137057E543F82600B2
:1018E0000E4D3AE58B5D032B00F2F08001A252F819
:1018F00023F000BF8D1300008D130000B11900000C
:10190000AB190000C894FF1F0080FF1FA494FF1FA5
:101910004094FF1F9494FF1FCC94FF1FEC93FF1F74
:101920004896FF1F5096FF1FBC94FF1F5094FF1F47
:101930006893FF1F5896FF1FDC94FF1FFC93FF1F47
:1019400094200740C02007408800400088200740BE
:1019500080200740982007400094FF1F5494FF1FE9
:10196000BD94FF1F8C200740C149C24B80220D202F
:1019700008701A70A2077FF50EAE05E640F202323B
:10198000914240F0EE80A98801F07F01042968D8D7
:101990006A88002A65D1B648CDF804E08900084479
:1019A000017841F00201017021E701238B55EDE43C
:1019B00000238B55EAE44FF0010388F8003001352D
:1019C000042D06F1040607F1040708F101087FF46D
:1019D000A1AEA94CA94B2278A94D049F059E0021D8
:1019E00029701A70130700F105816278A549DFF8A4
:1019F000A0820A7010074FF00001C9F83010C9F832
:101A0000381000F1E080A049A2780A700021C9F8DE
:101A10005010C9F858101107DFF8748200F10181E5
:101A2000E2789A499A4C0A7000211207C9F870109E
:101A3000C9F8781000F1B08033780193002183F069
:101A40000102C9F89010C9F89810D0E64FF00003D1
:101A500088F80030B3E7A98801F07F01042940F23B
:101A60008D80834A0F2313708A4A0123137052E535
:101A700040287FF6E2AE44F002040EEBC401029E61
:101A80004E60BAB19DF80410834A1970334640384D
:101A900088F8005040334EF83420E7E69DF80430D3
:101AA00033700204029B0D7042F0C80203444EF8EA
:101AB0003C20D8E69DF804101970029B774A88F8FC
:101AC0000050403840334EF83420CFE619F0080F6C
:101AD0000CBF022303238B5558E4714A0F21117068
:101AE00060E6704A5468002CBBD06888B5F804E002
:101AF00003E00C325468002CB3D013888342F8D131
:101B000053887345F5D1000A03280CBF94F800E010
:101B1000B2F808E003E0644A644C12782270E88866
:101B2000704580F03F8162490D784028844645F039
:101B3000020E28BF4FF0400C04EB0C0309EBCE0261
:101B4000029301235460CCEB00004FEA0C480022C2
:101B50000193C8245EE6554C4FF0020E227062706D
:101B6000DDE7B1F5A06F7FF47CAF01230022019384
:101B70003DE642F221329142F7D072E76A88002AAC
:101B80007FF46FAF3A48CDF804E08900084401784B
:101B900021F0020101702AE600F082F9002800F02D
:101BA000EF8008303D4AC4F88400C4F8802000F07B
:101BB00077F9002800F0DE800830374AC9F88C0039
:101BC000C9F8882038E700F06BF9002800F0C080E1
:101BD0000830324AC8F84400C8F8402000F060F9E4
:101BE000002800F0AF8008302B4AC9F84C00C9F833
:101BF000482008E700F054F9002800F0CD800830B4
:101C0000264AC9F82400C9F8202000F049F9002824
:101C100000F0BC800830204AC9F82C00C9F8282000
:101C2000E3E600F03DF9002800F09E8008301B4AF2
:101C3000C8F86400C8F8602000F032F9002800F00D
:101C40008D800830144AC9F86C00C9F86820E7E6AE
:101C5000C86B083800F044F904E5486B083800F018
:101C60003FF9F9E4C86A083800F03AF9EEE400BF39
:101C7000C02007408020074084460000C420074061
:101C8000BD94FF1FC8200740CC200740D02007404C
:101C90000080FF1F94200740C800400088004000DB
:101CA0005194FF1F88460000C894FF1FC094FF1F77
:101CB000BC94FF1F606A083800F012F9C0E4C86FD6
:101CC000083800F00DF9FDE4486F083800F008F915
:101CD000F2E4C86E083800F003F9E7E4486E08380B
:101CE00000F0FEF8DCE4C86D083800F0F9F8D1E443
:101CF000486D083800F0F4F8C6E4C86C083800F005
:101D0000EFF8BBE4486C083800F0EAF8B0E4D1F82A
:101D10009C00083800F0E4F8ECE4D1F894000838AE
:101D200000F0DEF8E0E4D1F88C00083800F0D8F8D4
:101D3000D4E4D1F88400083800F0D2F8C8E44FF0B9
:101D4000020EECE62A78C9F8480001322A705AE6F9
:101D50002A78C8F8400001322A703FE72A78C9F88B
:101D6000680001322A705BE62A78C8F86000013208
:101D70002A7061E72A78C9F8880001322A705BE688
:101D80002A78C4F8800001322A7010E72A78C9F84E
:101D9000280001322A7028E62A78C9F8200001328A
:101DA0002A7032E7BEF1400FF44628BF4FF0400CD6
:101DB00004EB0C0302930123CCEB0E004FEA0C481A
:101DC0000022019318E500BFF8B501F08FFB294B05
:101DD00029482A4C2A4F2B4DDFF8BCC0DFF8BCE065
:101DE000294E00221A605A609A60DA601A615A61BC
:101DF0009A61DA611A625A629A62DA621A635A6303
:101E00009A63DA631A645A649A64DA641A655A65E2
:101E10009A65DA651A665A669A66DA661A675A67C2
:101E20009A67DA67C3F880200168C3F8842041F418
:101E300080210160C3F307212170C3F307401349D8
:101E400038701B0E2B70FF238CF80030104D8EF86D
:101E5000003010480B700123337084F86420702622
:101E60004FF40074102207F82C3C2E70046081F8A7
:101E7000F820F8BD0080FF1F348004409C200740FC
:101E8000B0200740B42007409420074010200740AE
:101E900049E400E008E100E0802007408820074096
:101EA00072B60D480268B2FA82F30B2B10DC4FF0C9
:101EB0000041D94022EA0102026062B6074803EB02
:101EC000C303DB00C2180021C150104651607047A7
:101ED00062B60020704700BF2887FF1FBC83FF1F2A
:101EE0000D4B0E4AC31AA2FB03231B090B2B0CD864
:101EF0000B4A127852B972B60A484FF00041026894
:101F000021FA03F31A43026062B67047064A127858
:101F1000002AF0D0FFF74AB9BC83FF1F398EE3389F
:101F2000BD94FF1F2887FF1FC894FF1F044B054A5D
:101F30001B6890881BB11A885B88D31A18447047B5
:101F4000D894FF1F4896FF1F38B50E4B1B7873B906
:101F50000D4C216861B103F0FF054B880B80042014
:101F6000FFF788F9256038BD084B01221A7038BD8B
:101F7000FFF796FF0028F7D00146BDE8384004205F
:101F8000FFF778B9D194FF1FD494FF1FD094FF1F9F
:101F900010B4EFF3108272B6437F33B9017F012989
:101FA00007D003290FD00123437702B962B610BCD2
:101FB0007047124C2168A1B1114943610B688361DC
:101FC00008605861EFE70F4C216881B10E49436109
:101FD0000B688361086058610C4B4FF080511960A9
:101FE000E1E7074B4161816120601860DBE7064B48
:101FF0004161816120601860EEE700BFF094FF1F2F
:10200000EC94FF1FE094FF1FE494FF1F04ED00E039
:1020100010B4047F4160022CC26002D010BCFFF7F4
:10202000B7BF836810BC184770B5EFF3108272B663
:102030000C4C206880B10C4E00254369236073B1BD
:102040009D6102B962B6457783689847EFF31082C5
:1020500072B620680028F0D102B962B670BD336054
:10206000EFE700BFE094FF1FE494FF1FFFF7DCBF22
:10207000184A30B41468002C27D0036821688B42BA
:102080000ED2CB1A00218460C1602360E060106032
:102090000223037530BC704711688B42144608D385
:1020A000A2685B1A0360002AF6D18260C460A06057
:1020B000EEE7D268C2608460E060C568CB1A022295
:1020C000A8602360027530BC70478460C4601060F3
:1020D000DEE700BFE894FF1FF8B5224E34682CB34A
:1020E0002368002B3AD1204F1D4604E03468ECB140
:1020F0002368002B32D1A36803B1DD60206933600F
:10210000036825751B68BB4221D1037F4560022B04
:10211000C46020D0FFF73CFF6368002BE6D023604B
:102120002046FFF7A5FF3468002CE1D1EFF31083C0
:1021300072B60E4A00211068116003B962B628B168
:102140008468FFF795FF20460028F9D1F8BD2246A4
:1021500000219847E0E783689847DDE7013B23606B
:10216000E4E700BFE894FF1F11200000F894FF1F70
:10217000024A136801331360FFF7AEBF6893FF1F75
:102180000368C9B21B6818470368C9B21B681847BF
:102190000368C9B21B6818470368C9B21B681847AF
:1021A00008B5084600F062FC012008BD08B50846E5
:1021B00000F05CFC012008BD38B508460D4601F072
:1021C0005FFF04460146284600F05AFC204638BD11
:1021D00010B508461446114600F052FC204610BDCA
:1021E00000F02CBD08B5084600F018FC003018BF00
:1021F000012008BD08B5084600F0EEFB003018BF0E
:10220000012008BD0846114600F082BB084600F0D8
:10221000B9BB00BF084600F05FBB00BF00F0FABAD0
:102220004B0803F1376000F5D830B0FBF1F000F057
:102230004FBA00BF10B54B0803F13760144600F5E4
:10224000D830B0FBF1F000F043FA2046BDE8104072
:1022500000F0B4BA00F0DABC00F0A4BC00F092BC0C
:1022600000F072BC00F07CBC704700BF08B50846A7
:1022700000F05AFF012008BD08B5084600F054FFE1
:10228000012008BD38B508460D4601F0F9FE0446A8
:102290000146284600F0A0FF204638BD10B508468C
:1022A0001446114600F098FF204610BD01F072B8A8
:1022B00008B5084600F018FF003018BF012008BD1F
:1022C00008B5084600F0EEFE003018BF012008BD3A
:1022D0000846114600F07EBE084600F0B5BE00BFBD
:1022E000084600F05BBE00BF00F0F6BD4B0803F1EE
:1022F000376000F5D830B0FBF1F000F04BBD00BF07
:1023000010B54B0803F13760144600F5D830B0FB28
:10231000F1F000F03FFD2046BDE8104000F0B0BDF8
:1023200001F020B800F0EABF00F0D8BF00F0B8BF5D
:1023300000F0C2BF0368064A1B68934205D110B57E
:10234000C8B200F0F1FE012010BDC9B2184700BFAD
:10235000792200000368064A1B68934205D110B534
:10236000C8B200F0E1FE012010BDC9B2184700BF9D
:10237000792200000368064A1B68934205D110B514
:10238000C8B200F0D1FE012010BDC9B2184700BF8D
:10239000792200000368064A1B68934205D110B5F4
:1023A000C8B200F0C1FE012010BDC9B2184700BF7D
:1023B00079220000704700BF704700BF0168A9B1D3
:1023C0000B4BF0B40B441B110A4E0B4F0B4D46F850
:1023D000237003F1440202F01F0401235211A340B1
:1023E000002445F822308C600460F0BC704700BFC8
:1023F000008FFCBF4C87FF1FB923000080E100E085
:10240000024A034B012111601B6818470C710340FD
:102410004C87FF1F024A034B012111605B6818477C
:102420001C7103404C87FF1F024A034B01211160BE
:102430009B6818472C7103404C87FF1F024A034BCF
:1024400001211160DB6818473C7103404C87FF1F76
:1024500008B5FEF70BF8FEF71FF900F003F8FAE7EE
:10246000704700BF38B5224C237803B138BD012333
:102470002370FFF75BFD70BB00F084FB40BB00F0F6
:102480002DFF10BBFEF716FEE0B900232370EFF31B
:102490000583002BEAD1EFF3108172B6154B186853
:1024A000E0B1154C2278CAB945691D60012323703B
:1024B000C5B1AA6101B962B600254577836898471E
:1024C0002570D3E701F054F8DFE7FFF773FFD9E792
:1024D000FFF7CAFED3E7FFF7C3FFCDE70029C5D159
:1024E00062B638BD054B1D600029E5D1E3E700BFAA
:1024F000FC94FF1FF094FF1FF494FF1FEC94FF1F48
:1025000030B42948294A2A4B2A4D6024E12104701D
:1025100011701B78284C082B30D00A2B27482849EB
:1025200037D00C2B0CBF35223D2212232A602360AA
:1025300002600B60234B24491B78244ABBB1012362
:102540000B601360224B23491B78234A012B26D9A9
:10255000042B0FD9082B1ED9102B94BF8623872359
:102560000B6013601D4B01221A7030BC70470B606A
:102570001360E7E784230B601360F3E700F58E2018
:102580000F490830012213232A60236002600B6088
:10259000D0E73922F7E785230B601360E2E7802359
:1025A0000B601360DEE700BF0040074001400740BA
:1025B0005C87FF1F08B003400CB0034008B00B401D
:1025C0000CB00B40FE94FF1F20B0034020B00B4026
:1025D0005D87FF1F24B0034024B00B40FD94FF1F14
:1025E000F0B44D1E2E46002400E00134B0FBF2F39F
:1025F00002FB1300092800F130078ABF3730F8B218
:10260000C0B206F8010F1846002BEED10A1953701C
:102610004CB1107815F8016F28700133E01A83422D
:1026200002F80169F5DB0846F0BC70472DE9F84F68
:10263000214B1B6807460BB101221A70DFF8889006
:102640001E4D99F80040DFF884801D4E01343F2C68
:102650008ABF4FF0000A5FFA84FA5446AB462B78E3
:10266000A34216D1FEF7D4FA40281FDC33791B06AB
:10267000F5D59BF8003001333F2B86BF002213466F
:10268000DAB218F80330DBB2F3712A702B78A34268
:10269000E8D00C490A4BFFB208F804700120BC22B4
:1026A000087089F800A0DA70BDE8F88FFF28D6DD41
:1026B000FFF7D8FED3E700BF9095FF1F8D95FF1F52
:1026C00000A006408C95FF1F9495FF1F0895FF1FE3
:1026D0002B4A2C491368F0B543F4806313600A78E1
:1026E000294F2A4E2A4D2B4C2B4900233B70337027
:1026F0002B7023700B70002A3DD0152A21D0274B58
:102700001B78012B25D0052B30D01F2827D800207F
:1027100002460125224B234C1A7023495D70042286
:102720004FF0020E88273C26402598729A704FF48D
:10273000005083F813E05A751F74DE70257008602E
:10274000F0BD1A4B40F213321A60144B1B78012B68
:10275000D9D1174B4FF451721F281A60D7D9C0F343
:102760004432C0F3471500F01F00D3E7114B4FF47C
:1027700051721A60C9E7104B40F213321A60BEE77B
:10278000348004404895FF1F0495FF1F0595FF1FE7
:102790009495FF1F8D95FF1F8C95FF1F5E87FF1F70
:1027A00000A006402DE400E004E100E018C0044071
:1027B00044A004401CC0044040A00440144B1449F1
:1027C0009B7803F0EC0200F003031343420700F090
:1027D0000F0248BF43F01003042A8B7013D00C4B38
:1027E0000B4A5B79C10603F0EF0348BF43F01003C7
:1027F00053719379820603F0EF03054A48BF43F013
:102800001003937170478B7943F040038B71E6E7B7
:1028100000A00640234B1B685B0541D510B5224C38
:10282000237823B1FFF71EFE2378002BFAD11F482F
:102830001F4A204B4FF4005400210460D1701B78D4
:10284000FBB1152B03D11C4B40F203121A601B4B3A
:102850001B7803F07F03012B1DD0052B03D1184BF0
:1028600040F203121A60174A114B174817491268B1
:102870001C79DB79002303700B700AB101231370FC
:1028800010BD134B40F203121A600C4B1B7803F07F
:102890007F03012BE1D10F4B40F203121A60E2E7F4
:1028A000704700BF348004408C95FF1F84E100E036
:1028B00000A006404895FF1F18C004405E87FF1F18
:1028C0001CC004400095FF1F0495FF1F0595FF1FC6
:1028D00040A0044044A004400A4A38B50546137895
:1028E00003F0FF04002BFAD101212846FEF724FA59
:1028F00021462846FEF71AFA034A044B52F83520BF
:102900001A6038BD8C95FF1FB44400009095FF1FDE
:1029100009B140F08000174A1378984216D010B4DD
:10292000154C246864050FD503F07F03012B1CD0E0
:10293000052B11D0002900F07F0114BF6023442330
:1029400001290DD0052902D0107010BC70470B4929
:1029500043F440730B60F7E7084B00241C60E9E781
:10296000074943F440730B60EEE7054B00241C60FD
:10297000E0E700BF5E87FF1F348004401CC00440B6
:1029800044A00440104B1A7882420AD00F490968CB
:10299000490505D5AAB1152A09D068B1152801D075
:1029A000187070470A4A40F213311160F8E7084A7C
:1029B000002111600028F1D1064A40F21331116064
:1029C000EEE704490A60E8E74895FF1F34800440B9
:1029D00018C0044040A004400D4B1B6813F48063F2
:1029E00005D0212805D90B4B0020186070471846E8
:1029F0007047094B10B5074C53F830302360012164
:102A0000FEF79AF9236800221A70012010BD00BF5A
:102A1000348004400095FF1FB44400000F4B1B6836
:102A200013F4806308D0122808D0142811D00C4A5F
:102A3000537B03F0FE03537300207047094B40F2B1
:102A400002321A60064A537B43F00103537301209C
:102A50007047054B40F202321A60F3E734800440BD
:102A600000A006400CA0044014C00440034B1B68A7
:102A70005B0501D5FFF7DABD704700BF3480044025
:102A80002DE9F84F294B1B685A0548D5284B1B6880
:102A900005460BB101221A7005EB010A554540D2DB
:102AA000DFF89C80234CDFF89C90234F0AE015F858
:102AB000012B09F80B20214A0123AA45137088F83D
:102AC00000602ED098F80030227803F1010BBBF1A2
:102AD0003F0F86BF0026B3465FFA8BF69345E6D1DB
:102AE000BC22FA7005E03A7913060BD4227893459C
:102AF000DDD1FEF78DF84028F5DDFF28F6DDFFF784
:102B0000B1FCF3E7227801323F2A86BF00210A4652
:102B1000D1B219F80220D2B2FA712170E6E7BDE80D
:102B2000F88F054BBC22DA70BDE8F88F3480044082
:102B30009095FF1F8D95FF1F00A006408C95FF1FED
:102B40009495FF1F0895FF1F10B5044C237823B1FF
:102B5000FFF788FC2378002BFAD110BD8C95FF1F5E
:102B6000064A074B1B781078DBB2C0B283422CBFF9
:102B70003F3000F1FF30C01A704700BF8D95FF1F36
:102B80009495FF1F054A064B10781B78C0B2DBB244
:102B9000984238BF4030C01A704700BF0495FF1FED
:102BA0000595FF1F30B4154B154C1A782378D2B217
:102BB000DBB29A421ED001333F2B0ED91149124B82
:102BC000087819680023C0B2237021B1D31A1A2BD8
:102BD00001DC00230B7030BC70470A480A49C05C16
:102BE0000968DDB2C0B225700029F4D09A4238BF1E
:102BF0004032EBE74FF0FF30EDE700BF0495FF1FD9
:102C00000595FF1F4C95FF1F0095FF1F084A094BB4
:102C100012781B78DBB29A4207D00133402B28BFD1
:102C20000023054AD05CC0B270474FF0FF307047B8
:102C30000495FF1F0595FF1F4C95FF1F0D4B1B684B
:102C40005B0516D530B40C4B0C4CDA780C480D49AA
:102C500002F0CB024025DA705D74DA7842F034027B
:102C6000DA7023780268DBB20B700AB100231370AC
:102C700030BC70473480044000A006400595FF1F1B
:102C80000095FF1F0495FF1FF0B4384B1A7912F01E
:102C9000300F2CD072B6997D01F0FF0200293DD093
:102CA00062B6334F334938780D78334E1C46C0B284
:102CB000EDB2431C402BE17928BF0023AB4202F167
:102CC000FF32C9B21CBFF154184612F0FF02F0D116
:102CD0002A4B1B68C2B23A704BB1A84236BFC5F14D
:102CE0004005401B40192728C4BF01221A701F4904
:102CF000CA78D2B2150616D452060DD51B4B1B79D5
:102D00005B0609D51E4B1F491B6800220A7003B1E0
:102D10001A70164B3C22DA70F0BC70474022D97909
:102D20005A7462B6E3E70B791C06E5D5164B174ECD
:102D30001C783378E4B2DBB29C420ED0144D01E033
:102D4000A3420AD00133402B28BF00230879E85C56
:102D5000C0B2C871087D0728F2D9DBB203493370CD
:102D60000B79180644BF7C23CB70C5E700A0064052
:102D70000495FF1F0595FF1F4C95FF1F0095FF1F32
:102D80009095FF1F8C95FF1F9495FF1F8D95FF1F3A
:102D90000895FF1F2B4A2C491368F0B543F40063D4
:102DA00013600A78294F2A4E2A4D2B4C2B490023B9
:102DB000092A3B7033702B7023700B703DD01A2A98
:102DC00021D0274B1B780A2B25D01F2B30D01F2852
:102DD00027D8002002460125224B234C1A70234994
:102DE0005D7004224FF0020E88273C264025987221
:102DF0009A704FF4004083F813E05A751F74DE7028
:102E000025700860F0BD1A4B40F213321A60144B63
:102E10001B780A2BD9D1174B4FF451721F281A6017
:102E2000D7D9C0F34432C0F3471500F01F00D3E7F1
:102E3000114B4FF451721A60C9E7104B40F2133234
:102E40001A60BEE7348004405F87FF1F0896FF1FAB
:102E50009D95FF1F1096FF1F0996FF1F9C95FF1F52
:102E60006087FF1F00B006402FE400E004E100E0AF
:102E700004D0044010B0044000D004400CB0044022
:102E8000144B14499B7803F0EC0200F00303134346
:102E9000420700F00F0248BF43F01003042A8B7072
:102EA00013D00C4B0B4A5B79C10603F0EF0348BF0C
:102EB00043F0100353719379820603F0EF03054A40
:102EC00048BF43F01003937170478B7943F0400380
:102ED0008B71E6E700B00640234B1B681B0542D50B
:102EE00010B5224C237823B1FFF7BCFA2378002BCE
:102EF000FAD11F481F4A204B4FF4004400210460C0
:102F0000D1701B78092B1FD01A2B03D11B4B40F219
:102F100003121A601A4B1B7803F07F030A2B1DD093
:102F20001F2B03D1174B40F203121A60164A114BA4
:102F30001648174912681C79DB79002303700B705F
:102F40000AB10123137010BD124B40F203121A6034
:102F50000B4B1B7803F07F030A2BE1D10E4B40F2A1
:102F600003121A60E2E77047348004409C95FF1F0B
:102F700084E100E000B006405F87FF1F04D00440FA
:102F80006087FF1F00D004409895FF1F0896FF1F21
:102F90009D95FF1F0CB0044010B004400A4A38B59C
:102FA0000546137803F0FF04002BFAD101212846CF
:102FB000FDF7C2FE21462846FDF7B8FE034A044B42
:102FC00052F835201A6038BD9C95FF1FB4440000AC
:102FD0000C96FF1F09B140F08000174A1378984201
:102FE00016D010B4154C246824050FD503F07F03C8
:102FF0000A2B1CD01F2B11D0002900F07F0114BF19
:10300000602344230A290DD01F2902D0107010BC60
:1030100070470B4943F440730B60F7E7084B0024FB
:103020001C60E9E7074943F440730B60EEE7054B8A
:1030300000241C60E0E700BF6087FF1F348004406D
:1030400000D0044010B00440124B1A7882420CD0D9
:1030500011490968090507D5092A16D01A2A0AD084
:1030600009280DD01A2801D0187070470B4A40F279
:1030700013311160F8E7094A002109281160F1D1E4
:10308000074A40F213311160EEE7054A0021116052
:10309000E6E700BF5F87FF1F3480044004D0044090
:1030A0000CB004400D4B1B6813F4006305D02128BD
:1030B00005D90B4B00201860704718467047094B24
:1030C00010B5074C53F8303023600121FDF734FE72
:1030D000236800221A70012010BD00BF3480044014
:1030E0009895FF1FB44400000C4B1B6813F4006359
:1030F00006D0172806D00A4A537B03F0FE03537309
:1031000000207047074B064A40F202311960537B9A
:1031100043F0010353730120704700BF3480044023
:1031200000B0064008B004402DE9F84F234B1B685F
:103130001A053BD5224B1B680BB101221A70DFF830
:103140009090204D99F80040DFF888801E4E0134A1
:10315000272C8ABF4FF0000A5FFA84FA54460746CC
:10316000AB462B789C4216D1FDF752FD40281FDC60
:1031700033791B06F5D59BF800300133272B86BF2A
:1031800000221346DAB218F80330DBB2F3712A706A
:103190002B789C42E8D00D490B4BFFB20120BC229A
:1031A00008F80470087089F800A0DA70BDE8F88F9C
:1031B000FF28D6DDFFF756F9D3E700BF348004407F
:1031C0000C96FF1F0996FF1F00B006409C95FF1F3D
:1031D0001096FF1FA095FF1F2DE9F84F294B1B6884
:1031E0001A0548D5284B1B6805460BB101221A70F9
:1031F00005EB010A554540D2DFF89C80234CDFF8EF
:103200009C90234F0AE015F8012B09F80B20214A66
:103210000123AA45137088F800602ED098F800307A
:10322000227803F1010BBBF1270F86BF0026B346BE
:103230005FFA8BF69345E6D1BC22FA7005E03A7945
:1032400013060BD422789345DDD1FDF7E1FC40282D
:10325000F5DDFF28F6DDFFF705F9F3E72278013207
:10326000272A86BF00210A46D1B219F80220D2B21D
:10327000FA712170E6E7BDE8F88F054BBC22DA70E1
:10328000BDE8F88F348004400C96FF1F0996FF1F9D
:1032900000B006409C95FF1F1096FF1FA095FF1FD2
:1032A00010B5044C237823B1FFF7DCF82378002B0A
:1032B000FAD110BD9C95FF1F064A074B1B7810786A
:1032C000DBB2C0B283422CBF273000F1FF30C01AFE
:1032D000704700BF0996FF1F1096FF1F054A064B57
:1032E00010781B78C0B2DBB2984238BF4030C01AA9
:1032F000704700BF0896FF1F9D95FF1F30B4154B08
:10330000154C1A782378D2B2DBB29A421ED0013320
:103310003F2B0ED91149124B087819680023C0B20F
:10332000237021B1D31A1A2B01DC00230B7030BC9F
:1033300070470A480A49C05C0968DDB2C0B225700E
:103340000029F4D09A4238BF4032EBE74FF0FF300B
:10335000EDE700BF0896FF1F9D95FF1FC895FF1F53
:103360009895FF1F084A094B12781B78DBB29A42E6
:1033700007D00133402B28BF0023054AD05CC0B2E0
:1033800070474FF0FF3070470896FF1F9D95FF1F55
:10339000C895FF1F0D4B1B681B0516D530B40C4B91
:1033A0000C4CDA780C480D4902F0CB024025DA705B
:1033B0005D74DA7842F03402DA7023780268DBB2A6
:1033C0000B700AB10023137030BC70473480044086
:1033D00000B006409D95FF1F9895FF1F0896FF1FA0
:1033E000F0B4384B1A7912F0300F2CD072B6997DA8
:1033F00001F0FF0200293DD062B6334F33493878DF
:103400000D78334E1C46C0B2EDB2431C402BE1791F
:1034100028BF0023AB4202F1FF32C9B21CBFF154F6
:10342000184612F0FF02F0D12A4B1B68C2B23A7064
:103430004BB1A84236BFC5F14005401B40192728B3
:10344000C4BF01221A701F49CA78D2B2150616D419
:1034500052060DD51B4B1B795B0609D51E4B1F4928
:103460001B6800220A7003B11A70164B3C22DA70F6
:10347000F0BC70474022D9795A7462B6E3E70B7901
:103480001C06E5D5164B174E1C783378E4B2DBB238
:103490009C420ED0144D01E0A3420AD00133282BE8
:1034A00028BF00230879E85CC0B2C871087D0728EE
:1034B000F2D9DBB2034933700B79180644BF7C2381
:1034C000CB70C5E700B006400896FF1F9D95FF1F13
:1034D000C895FF1F9895FF1F0C96FF1F9C95FF1F17
:1034E0001096FF1F0996FF1FA095FF1F70B584B0AF
:1034F00072B6194B194D1A48702241260F248021AB
:103500001A702E701A460470197013781B06FCD5B9
:10351000144B186862B6144B144C984298BF00EBD9
:10352000800001A998BF40000A22FFF759F801A9BD
:103530002046002311F8012B01333AB10A2B20F861
:10354000022FF7D11623237004B070BD5B00DBB2ED
:10355000237004B070BD00BF0000024007000240AD
:1035600006000240080002407F969800F087FF1F87
:10357000704700BF80F0004002E000BF81F00041D2
:1035800042001FBF5FEA410392EA030F7FEA226C09
:103590007FEA236C6AD04FEA1262D2EB1363C1BF99
:1035A000D218414048404140B8BF5B42192B88BF08
:1035B000704710F0004F40F4000020F07F4018BF2B
:1035C000404211F0004F41F4000121F07F4118BF4B
:1035D000494292EA030F3FD0A2F1010241FA03FCF3
:1035E00010EB0C00C3F1200301FA03F100F00043DB
:1035F00002D5494260EB4000B0F5000F13D3B0F1A3
:10360000807F06D340084FEA310102F10102FE2A11
:1036100051D2B1F1004F40EBC25008BF20F0010081
:1036200040EA03007047490040EB000010F4000F2F
:10363000A2F10102EDD1B0FA80FCACF1080CB2EBC2
:103640000C0200FA0CF0AABF00EBC2505242184321
:10365000BCBFD0401843704792F0000F81F40001C6
:1036600006BF80F400000132013BB5E74FEA410399
:103670007FEA226C18BF7FEA236C21D092EA030F05
:1036800004D092F0000F08BF0846704790EA010F7F
:103690001CBF0020704712F07F4F04D1400028BFAC
:1036A00040F00040704712F100723CBF00F500008E
:1036B000704700F0004343F0FE4040F400007047C4
:1036C0007FEA226216BF08467FEA23630146420270
:1036D00006BF5FEA412390EA010F40F48000704783
:1036E0004FF0000304E000BF10F0004348BF404229
:1036F0005FEA000C08BF704743F0964301464FF065
:1037000000001CE050EA010208BF70474FF00003C0
:103710000AE000BF50EA010208BF704711F0004301
:1037200002D5404261EB41015FEA010C02BF8446D1
:103730000146002043F0B64308BFA3F18053A3F530
:103740000003BCFA8CF2083AA3EBC25310DB01FA77
:1037500002FC634400FA02FCC2F12002BCF1004FFB
:1037600020FA02F243EB020008BF20F0010070478C
:1037700002F1200201FA02FCC2F1200250EA4C00E0
:1037800021FA02F243EB020008BF20EADC70704726
:103790004FF0FF0C1CEAD0521EBF1CEAD15392EA34
:1037A0000C0F93EA0C0F6FD01A4480EA010C400210
:1037B00018BF5FEA41211ED04FF0006343EA50106A
:1037C00043EA5111A0FB01310CF00040B1F5000FAC
:1037D0003EBF490041EAD3715B0040EA010062F15B
:1037E0007F02FD2A1DD8B3F1004F40EBC25008BF45
:1037F00020F00100704790F0000F0CF0004C08BF63
:1038000049024CEA502040EA51207F3AC2BFD2F12F
:10381000FF0340EAC250704740F400004FF000033D
:10382000013A5DDC12F1190FDCBF00F00040704777
:10383000C2F10002410021FA02F1C2F1200200FAB5
:1038400002FC5FEA310040F1000053EA4C0308BF7C
:1038500020EADC70704792F0000F00F0004C02BFCD
:10386000400010F4000F013AF9D040EA0C0093F048
:10387000000F01F0004C02BF490011F4000F013BA2
:10388000F9D041EA0C018FE70CEAD15392EA0C0F10
:1038900018BF93EA0C0F0AD030F0004C18BF31F07B
:1038A000004CD8D180EA010000F00040704790F051
:1038B000000F17BF90F0004F084691F0000F91F0F5
:1038C000004F14D092EA0C0F01D142020FD193EABB
:1038D0000C0F03D14B0218BF084608D180EA010043
:1038E00000F0004040F0FE4040F40000704740F01F
:1038F000FE4040F4400070474FF0FF0C1CEAD052ED
:103900001EBF1CEAD15392EA0C0F93EA0C0F69D048
:10391000A2EB030280EA010C49024FEA402037D0B3
:103920004FF0805343EA111143EA10130CF00040AA
:103930008B4238BF5B0042F17D024FF4000C8B429A
:1039400024BF5B1A40EA0C00B3EB510F24BFA3EB7A
:10395000510340EA5C00B3EB910F24BFA3EB91034A
:1039600040EA9C00B3EBD10F24BFA3EBD10340EAA4
:10397000DC001B0118BF5FEA1C1CE0D1FD2A3FF6EA
:1039800050AF8B4240EBC25008BF20F0010070479F
:103990000CF0004C4CEA50207F32C2BFD2F1FF0342
:1039A00040EAC250704740F400004FF00003013A73
:1039B00037E792F0000F00F0004C02BF400010F417
:1039C000000F013AF9D040EA0C0093F0000F01F02B
:1039D000004C02BF490011F4000F013BF9D041EA4D
:1039E0000C0195E70CEAD15392EA0C0F08D1420280
:1039F0007FF47DAF93EA0C0F7FF470AF084676E753
:103A000093EA0C0F04D14B023FF44CAF08466EE72B
:103A100030F0004C18BF31F0004CCAD130F00042F9
:103A20007FF45CAF31F000437FF43CAF5FE700BF51
:103A30000B460146184600F001B800BF13460A467F
:103A40000146022000F08ABB014B1868704700BF96
:103A5000308CFF1F70B50F4E0F4D761BB61018BF80
:103A6000002405D0013455F8043B9847A642F9D10B
:103A70000A4E0B4D761B00F033FEB61018BF002423
:103A800006D0013455F8043B9847A642F9D170BDE1
:103A900070BD00BFEC460000EC460000FC46000094
:103AA000EC460000024B0146186800F00BB800BF5E
:103AB000308CFF1F024B0146186800F013BC00BF9A
:103AC000308CFF1F2DE9F04F01F10B05162D83B04F
:103AD000064640F29F8035F0070500F1BF80A942FD
:103AE00000F2BC8000F0A6FAB5F5FC7FC0F09C8225
:103AF0006B0A00F0BA80042B00F28381A80900F160
:103B0000390E4FEA4E033830C44F07EB8303A3F15D
:103B100008015C68A14207D1ACE0002A80F2AC80C9
:103B2000E468A14200F0A680636823F003035A1BF7
:103B30000F2AF2DDB9493C6901F1080E744500F025
:103B4000B381636823F003035A1B0F2A00F39981A2
:103B5000002AC1F814E0C1F810E080F29E80B3F5AD
:103B6000007F80F06781DB0803F1010C01229B10CC
:103B700002FA03F34A6851F83C80C4F8088001EB6C
:103B8000CC091A43A9F10803E3604A6041F83C40BC
:103B9000C8F80C40831001249C40944200F28A80B3
:103BA000144206D120F003006400144200F1040026
:103BB000FAD007EBC009CC468046DCF80C108C45E7
:103BC00007D173E1002A80F28181C9688C4500F039
:103BD0006D814B6823F003035A1B0F2AF2DD0C465C
:103BE000D1F80CC054F8088F4B1945F001054D6011
:103BF00042F00101C8F80CC03046CCF808807B6167
:103C00003B61C3F80CE0C3F808E059609A5000F03B
:103C100013FA1FE0102921D800F00CFA1025062312
:103C200002207E4F07EB8303A3F108025C689442F5
:103C300000F045816368E168A56823F0030323442D
:103C400030465A68E96042F001028D605A6000F027
:103C5000F3F90834204603B0BDE8F08F00240C23AC
:103C60002046336003B0BDE8F08F80234FF0400E54
:103C70003F2049E770465DE72344E1685A68A5683C
:103C800042F00102E96030468D605A6000F0D4F9DC
:103C90000834204603B0BDE8F08F234430465A680C
:103CA00042F001025A6000F0C7F90834204603B020
:103CB000BDE8F08FBC68636823F00308A84504D30F
:103CC000C5EB08030F2B00F38C80554BDFF8609198
:103CD0001A68D9F8003001332A4404EB080A00F0CE
:103CE000608102F580520F3222F47F6222F00F02CF
:103CF00011463046019200F0A1F9B0F1FF3F834632
:103D0000019A00F05881824500F2FC80454B196809
:103D1000DA451144196000F05381D9F80000DFF84A
:103D200010E101301BBFCAEB0B0A5144CEF800B0C2
:103D300019601BF0070100F01781C1F10800C1F5FF
:103D40008051834408315A44C2F30B02C2EB01098B
:103D500049463046019300F071F9431C019B00F085
:103D60003F81CBEB00024A4442F001021968C7F8D8
:103D700008B04944BC42CBF804201960DFF8A49095
:103D800016D0B8F10F0F40F2FD806268A8F10C0365
:103D900023F00703E01802F001024FF0050E1A436A
:103DA0000F2B6260C0F804E0C0F808E000F21C814C
:103DB0001D4BBC681A68914288BF19601B4B1A687A
:103DC0009142626888BF196022F003029542A2EB1B
:103DD000050301D80F2B04DC304600F02DF9002438
:103DE00038E7621943F0010345F00105656030468C
:103DF000BA60536000F020F90834204603B0BDE8F3
:103E0000F08F142B71D9542B00F2A480280B00F1F1
:103E10006F0E4FEA4E036E3076E600BF348CFF1F04
:103E20001C96FF1F2096FF1F1896FF1F1496FF1F5A
:103E30004090FF1F5A0A042A5ED9142A00F2B38068
:103E400002F15C0149005B3207EB810C57F821104D
:103E5000DFF8DC81ACF1080C8C4500F088804A6802
:103E600022F00302934202D289688C45F7D1D1F83F
:103E70000CC07A68C4F80CC0A160CCF80840CC60D3
:103E800088E6631942F0010745F001056560304698
:103E90004B610B61C3F80CE0C3F808E05F609A5017
:103EA000083400F0C9F8D5E64A6873E608F101085D
:103EB00018F0030F0CF1080C7FF47FAE30E0DC68E3
:103EC000A34208BF02303FF435AEB3E60B440C46C4
:103ED0005A68C96854F8085F42F001025A603046D7
:103EE000E9608D6000F0A8F8B4E603F15C0E03F120
:103EF0005B004FEA4E0307E69A0902F139014900D7
:103F00003832A1E7BC424A4B3FF400AF9C6862687C
:103F100022F003025AE759F80839994540F08280A7
:103F200010F0030F00F1FF30F5D17B6823EA0403A2
:103F30007B6064009C423FF6BDAE002C3FF4BAAEFD
:103F40001C4240467FF435AE64001C4200F1040080
:103F5000FAD02EE6B3F5AA7F18D8E80B00F1780E58
:103F60004FEA4E037730CFE54FF48051EBE6012165
:103F7000D8F80430921001FA02F21A43C8F804206B
:103F8000614677E70123CBF8043025E740F254522D
:103F9000934220D8A80C00F17D0E4FEA4E037C30EE
:103FA000B2E51032A4E6542A26D81A0B02F16F01AA
:103FB00049006E3248E7BC68626822F0030205E7F8
:103FC000CAF30B0000287FF4A8AE4244BB6842F05D
:103FD00001025A60ECE6FE234FF07F0E7E2093E54F
:103FE00001224FF00009C1E604F10801304600F05B
:103FF00079F9D9F80010DBE6B2F5AA7F05D8DA0B1B
:1040000002F17801490077321EE740F254518A42AA
:1040100005D89A0C02F17D0149007C3214E7FE219B
:104020007E2211E77B6884E7E808431C5B00F8E523
:10403000348CFF1F704700BF704700BF38B5074C76
:104040000023054608462360FCF7C2FD431C00D050
:1040500038BD2368002BFBD02B6038BD5C96FF1F5A
:10406000FFFFFFFFFFFFFFFFFFFFFFFFFFFFFFFF60
:10407000FFFFFFFFFFFFFFFFFFFFFFFFFFFFFFFF50
:1040800090F800F06DE9024520F007016FF0000C98
:1040900010F0070491F820F040F049804FF0000440
:1040A0006FF00700D1E9002391F840F000F108001B
:1040B00082FA4CF2A4FA8CF283FA4CF3A2FA8CF353
:1040C0004BBBD1E9022382FA4CF200F10800A4FABA
:1040D0008CF283FA4CF3A2FA8CF3E3B9D1E904230E
:1040E00082FA4CF200F10800A4FA8CF283FA4CF345
:1040F000A2FA8CF37BB9D1E9062301F1200182FAFF
:104100004CF200F10800A4FA8CF283FA4CF3A2FA04
:104110008CF3002BC6D0002A04BF04301A4612BA12
:10412000B2FA82F2FDE8024500EBD2007047D1E915
:10413000002304F00305C4F100004FEAC50514F0A4
:10414000040F91F840F00CFA05F562EA05021CBF75
:1041500063EA050362464FF00004A9E72DE9F04742
:10416000254C2568D5F8484106468846924699462A
:10417000C4B360681F2817DC431C76B104EB8005CC
:104180000122C5F888A0D4F8881182401143022E7C
:10419000C4F88811C5F808911ED00230636044F855
:1041A00020800020BDE8F087144B03B34FF4C870A3
:1041B000FFF778FC0446D0B1D5F84831002780E8F5
:1041C0008800C5F8484138460123C4F88871C4F80E
:1041D0008C71002EE1D0D1E7D4F88C110A43C4F8D9
:1041E0008C21DAE705F5A674C5F84841C1E74FF020
:1041F000FF30BDE8F08700BFDC460000A53A0000B4
:10420000024B13B1024800F005B8704700000000EF
:1042100021420000002301461A461846FFF79EBFC0
:1042200038B5074D074C2C1BA41005D0013C55F8A0
:10423000043D9847002CF9D1BDE8384000F05EBA43
:104240000000000000000000F8B5234F0C460646B1
:10425000FFF7F0FEBB685D6825F00305291B01F63A
:10426000EF7121F47F6121F00F01A1F58054B4F5C5
:10427000805F07DB00213046FFF7E0FEBB682B4480
:10428000984204D03046FFF7D7FE0020F8BD6142C7
:104290003046FFF7D3FE01300DD0104BBA681968D5
:1042A0002D1B45F001053046091B55601960FFF7CD
:1042B000C3FE0120F8BD00213046FFF7BFFEBA68FB
:1042C000831A0F2BDEDD064C0449246843F00103FA
:1042D000001B53600860D5E7348CFF1F2096FF1F3A
:1042E0004090FF1F002945D02DE9F0410D46804642
:1042F000FFF7A0FE55F8047C6A4927F00103A5F1F9
:104300000804E2188E685068B24220F0030062D0C0
:10431000FE0750600BD455F8087CE41B01F1080E31
:10432000A56875453B446FD0E768EF60BD60151820
:104330006D68ED0742D543F001026260E350B3F5CA
:10434000007F18D2DB085A1C4D6851F83270A76004
:1043500001209B1000FA03F301EBC2001D43083853
:10436000E0604D6041F83240FC604046BDE8F041FD
:10437000FFF762BE70475A0A042A53D89A0902F11D
:1043800039077F0002F1380501EB870051F827203B
:104390004449083890424DD0516821F003018B42C6
:1043A00002D292689042F7D1D068E060A260846047
:1043B000D4604046BDE8F041FFF73EBE95683A4FF5
:1043C000BD4203443FD0D068E86043F001028560FD
:1043D0006260E350B3E7FF07034407D455F8082CA5
:1043E000A41A1344A068E268C26090602F4A126861
:1043F00043F00100934260608C60B6D32C4B404682
:104400001968FFF721FFB0E711184968C90744D4BC
:104410009168D268CA60034443F001009160606013
:10442000E350A2E7142A17D802F15C077F0002F1DB
:104430005B05A9E7AA104B68012505FA02F21343B0
:104440004B600246B1E743F001024C610C61E5604C
:10445000A5606260E35088E7542A06D81A0B02F17F
:104460006F077F0002F16E058EE7B2F5AA7F06D8CE
:10447000DA0B02F178077F0002F1770584E740F25A
:104480005450824206D89A0C02F17D077F0002F157
:104490007C0579E7FE277E2576E743F0010262601E
:1044A000E35062E7348CFF1F3C8CFF1F3C90FF1FE2
:1044B0001C96FF1F4008FE4340A004404408FE43F2
:1044C00044A004400018FE4300C004403000FE43F6
:1044D000309004403400FE43349004401C18FE43E6
:1044E0001CC004401018FE4310C004400818FE43CE
:1044F00008C004400C18FE430CC004400C10FE43DE
:104500000CB004401010FE4310B004401810FE43DD
:1045100018B004401C10FE431CB004401410FE43AD
:1045200014B004400418FE4304C004400010FE43CD
:1045300000B004400008FE4300A004400408FE430D
:1045400004A004400C08FE430CA004400808FE43ED
:1045500008A004401418FE4314C004401818FE4379
:1045600018C004400410FE4304B004400810FE4389
:1045700008B004401400FE43149004404C08FE436D
:104580004CA004400420FE4304D004402410FE4309
:1045900024B004402010FE4320B004402810FE4305
:1045A00028B004402C10FE432CB004400020FE43F1
:1045B00000D004404808FE4348A004401000FE43D9
:1045C000109004400000000000000000AD21000039
:1045D000D121000065220000612200005D22000060
:1045E000592200005522000021220000352200003F
:1045F0001D220000152200000D22000005220000EF
:10460000F5210000E5210000E121000081210000EA
:10461000892100009121000099210000B9210000AA
:10462000A12100000000000000000000792200002D
:104630009D220000312300002D23000029230000CB
:104640002523000021230000ED22000001230000AB
:10465000E9220000E1220000D9220000D12200005E
:10466000C1220000B1220000AD220000552300004D
:1046700075230000952300003523000085220000EB
:104680006D22000000151915000100006487FF1F4E
:1046900012000000000200009087FF1F430000008E
:1046A00000030000EC87FF1F000000000103090465
:1046B0007887FF1F0000000002030904D487FF1F52
:1046C0000000000003030904F087FF1F0000000042
:1046D0000000000000000000000000000888FF1F2C
:1046E000F8B500BFF8BC08BC9E4670470142000008
:0C46F00035040000A50700004D0B000081
:0446FC00F8B500BF4E
:10470000000000006096FF1FFFFFFFFFCC45000088
:1047100000000000E8030000000000002C4600003C
:1047200000000000E803000000000000B9230000C2
:10473000B9230000B9230000B92300000A040109CD
:104740000A0000001201100102000040C01683049C
:1047500075020102030100001803540065006500A2
:104760006E00730079006400750069006E006F00D0
:1047700009024300020100C03209040000010202E4
:104780000100052400100105240101010424020692
:1047900005240600010705820310004009040100FA
:1047A000020A00000007050302400000070584021A
:1047B0004000000016035500530042002000530043
:1047C00065007200690061006C00000004030904C8
:1047D0000C030000000000000000000000000000CA
:1047E000000000000000000000000000F48AFF1F2D
:1047F0005C8BFF1FC48BFF1F000000000000000047
:1048000000000000000000000000000000000000A8
:104810000000000000000000000000000000000098
:104820000000000000000000000000000000000088
:104830000000000000000000000000000000000078
:104840000000000000000000000000000000000068
:104850000000000000000000000000000000000058
:104860000000000000000000000000000000000048
:104870000000000000000000000000000000000038
:104880000000000000000000000000000000000028
:1048900001000000000000000E33CDAB34126DE6C5
:1048A000ECDE05000B00000000000000000000002E
:1048B00000000000000000000000000000000000F8
:1048C00000000000000000000000000000000000E8
:1048D00000000000000000000000000000000000D8
:1048E00000000000000000000000000000000000C8
:104C10000888FF1F0000000000000000348CFF1F08
:104C2000348CFF1F3C8CFF1F3C8CFF1F448CFF1FEC
:104C3000448CFF1F4C8CFF1F4C8CFF1F548CFF1F9C
:104C4000548CFF1F5C8CFF1F5C8CFF1F648CFF1F4C
:104C5000648CFF1F6C8CFF1F6C8CFF1F748CFF1FFC
:104C6000748CFF1F7C8CFF1F7C8CFF1F848CFF1FAC
:104C7000848CFF1F8C8CFF1F8C8CFF1F948CFF1F5C
:104C8000948CFF1F9C8CFF1F9C8CFF1FA48CFF1F0C
:104C9000A48CFF1FAC8CFF1FAC8CFF1FB48CFF1FBC
:104CA000B48CFF1FBC8CFF1FBC8CFF1FC48CFF1F6C
:104CB000C48CFF1FCC8CFF1FCC8CFF1FD48CFF1F1C
:104CC000D48CFF1FDC8CFF1FDC8CFF1FE48CFF1FCC
:104CD000E48CFF1FEC8CFF1FEC8CFF1FF48CFF1F7C
:104CE000F48CFF1FFC8CFF1FFC8CFF1F048DFF1F2B
:104CF000048DFF1F0C8DFF1F0C8DFF1F148DFF1FD8
:104D0000148DFF1F1C8DFF1F1C8DFF1F248DFF1F87
:104D1000248DFF1F2C8DFF1F2C8DFF1F348DFF1F37
:104D2000348DFF1F3C8DFF1F3C8DFF1F448DFF1FE7
:104D3000448DFF1F4C8DFF1F4C8DFF1F548DFF1F97
:104D4000548DFF1F5C8DFF1F5C8DFF1F648DFF1F47
:104D5000648DFF1F6C8DFF1F6C8DFF1F748DFF1FF7
:104D6000748DFF1F7C8DFF1F7C8DFF1F848DFF1FA7
:104D7000848DFF1F8C8DFF1F8C8DFF1F948DFF1F57
:104D8000948DFF1F9C8DFF1F9C8DFF1FA48DFF1F07
:104D9000A48DFF1FAC8DFF1FAC8DFF1FB48DFF1FB7
:104DA000B48DFF1FBC8DFF1FBC8DFF1FC48DFF1F67
:104DB000C48DFF1FCC8DFF1FCC8DFF1FD48DFF1F17
:104DC000D48DFF1FDC8DFF1FDC8DFF1FE48DFF1FC7
:104DD000E48DFF1FEC8DFF1FEC8DFF1FF48DFF1F77
:104DE000F48DFF1FFC8DFF1FFC8DFF1F048EFF1F26
:104DF000048EFF1F0C8EFF1F0C8EFF1F148EFF1FD3
:104E0000148EFF1F1C8EFF1F1C8EFF1F248EFF1F82
:104E1000248EFF1F2C8EFF1F2C8EFF1F348EFF1F32
:104E2000348EFF1F3C8EFF1F3C8EFF1F448EFF1FE2
:104E3000448EFF1F4C8EFF1F4C8EFF1F548EFF1F92
:104E4000548EFF1F5C8EFF1F5C8EFF1F648EFF1F42
:104E5000648EFF1F6C8EFF1F6C8EFF1F748EFF1FF2
:104E6000748EFF1F7C8EFF1F7C8EFF1F848EFF1FA2
:104E7000848EFF1F8C8EFF1F8C8EFF1F948EFF1F52
:104E8000948EFF1F9C8EFF1F9C8EFF1FA48EFF1F02
:104E9000A48EFF1FAC8EFF1FAC8EFF1FB48EFF1FB2
:104EA000B48EFF1FBC8EFF1FBC8EFF1FC48EFF1F62
:104EB000C48EFF1FCC8EFF1FCC8EFF1FD48EFF1F12
:104EC000D48EFF1FDC8EFF1FDC8EFF1FE48EFF1FC2
:104ED000E48EFF1FEC8EFF1FEC8EFF1FF48EFF1F72
:104EE000F48EFF1FFC8EFF1FFC8EFF1F048FFF1F21
:104EF000048FFF1F0C8FFF1F0C8FFF1F148FFF1FCE
:104F0000148FFF1F1C8FFF1F1C8FFF1F248FFF1F7D
:104F1000248FFF1F2C8FFF1F2C8FFF1F348FFF1F2D
:104F2000348FFF1F3C8FFF1F3C8FFF1F448FFF1FDD
:104F3000448FFF1F4C8FFF1F4C8FFF1F548FFF1F8D
:104F4000548FFF1F5C8FFF1F5C8FFF1F648FFF1F3D
:104F5000648FFF1F6C8FFF1F6C8FFF1F748FFF1FED
:104F6000748FFF1F7C8FFF1F7C8FFF1F848FFF1F9D
:104F7000848FFF1F8C8FFF1F8C8FFF1F948FFF1F4D
:104F8000948FFF1F9C8FFF1F9C8FFF1FA48FFF1FFD
:104F9000A48FFF1FAC8FFF1FAC8FFF1FB48FFF1FAD
:104FA000B48FFF1FBC8FFF1FBC8FFF1FC48FFF1F5D
:104FB000C48FFF1FCC8FFF1FCC8FFF1FD48FFF1F0D
:104FC000D48FFF1FDC8FFF1FDC8FFF1FE48FFF1FBD
:104FD000E48FFF1FEC8FFF1FEC8FFF1FF48FFF1F6D
:104FE000F48FFF1FFC8FFF1FFC8FFF1F0490FF1F1C
:104FF0000490FF1F0C90FF1F0C90FF1F1490FF1FC9
:105000001490FF1F1C90FF1F1C90FF1F2490FF1F78
:105010002490FF1F2C90FF1F2C90FF1F0000020008
:04502000FFFFFFFF90
:00000001FF
