:1000000000800020BD010000750B00002D0B0000DA
:100010002D0B00002D0B00002D0B00002D0B000000
:100020002D0B00002D0B00002D0B0000750B0000A8
:10003000750B00002D0B00007124000075250000D9
:10004000750B0000750B0000750B0000750B0000B0
:10005000750B0000750B0000750B0000750B0000A0
:10006000750B0000750B0000750B0000750B000090
:10007000750B0000750B0000750B0000750B000080
:10008000750B0000750B0000750B0000750B000070
:10009000750B0000750B0000750B0000750B000060
:1000A000750B0000750B0000750B0000750B000050
:1000B000750B0000750B0000750B0000750B000040
:1000C000750B0000750B0000750B0000750B000030
:1000D000750B0000750B0000750B0000750B000020
:1000E000750B0000750B0000750B0000750B000010
:1000F000750B00007D310000750B0000D51000006D
:10010000750B000001120000750B0000750B00005C
:10011000750B0000750B0000750B0000750B0000DF
:10012000750B0000750B0000750B0000750B0000CF
:10013000750B0000750B0000750B0000750B0000BF
:10014000750B0000750B0000750B0000750B0000AF
:100150004D27000061270000752700008927000057
:10016000750B00008D140000750B0000750B00006E
:10017000750B0000750B0000750B0000750B00007F
:10018000750B0000750B0000750B0000750B00006F
:10019000750B0000750B0000750B0000750B00005F
:1001A000750B0000750B0000750B0000750B00004F
:1001B000750B0000750B0000750B0000564B4CF2E0
:1001C000205210B51A804DF628121A8000BF00BFC9
:1001D00000F0D4FC514B4FF010621A60504A9A6004
:1001E000504ADA60504A136813F4807304D14F49BF
:1001F0000B604FF4A85313604D4B1A78110703D5C9
:100200001A7842F008021A704A4B4B492A221A7097
:100210004A4A4B4B8B4204D252F8040F43F8040B6A
:10022000F8E7484B484900228B4202D243F8042B9E
:10023000FAE74649464A002352F8230041F82300D2
:1002400001336F2BF8D1434B434A802103F8011B44
:100250009342FBD1414B3D4A1A60414B8A221A70AE
:10026000A3F5805324225A70A0221A709A7992071B
:10027000FCD59A79D406FCD43A4A937903F00C035E
:10028000082B384BF9D103221A7140225A719A79FE
:100290009006FCD5334A9179324B4906FBD5324A58
:1002A000324911600221516020221A709A7902F0BD
:1002B0000C020C2AFAD12E4B2E4A1A602E4B2F4AD2
:1002C0001A6000225A60072243F8042C2C4AC3F813
:1002D0000C2D62B600F084FD144B1B68DA0705D5BF
:1002E000284800F0EFFC284B284A1A60284B1B785E
:1002F0005B0609D5244C254B22689A4204D121483B
:1003000000F0E0FC0023236003F0DCFE00F03CFC86
:1003100002F06AFAFEE700BF0E200540308004407C
:10032000823F04000100002B10D0034014D0034092
:1003300002D0074000E00740B091FF1F388800005E
:100340002087FF1FB091FF1F9896FF1F0082FF1F9D
:100350000000000000E400E05FE400E008ED00E0E1
:100360000050064000400640448004400000030165
:1003700004800440C010050014E000E0FF76010096
:1003800000002020E56FA45D1CE00340A5C3945A43
:1003900000F00740FFFFFFFFFFFFFFFFFFFFFFFF32
:1003A000FFFFFFFFFFFFFFFFFFFFFFFFFFFFFFFF5D
:1003B000FFFFFFFFFFFFFFFFFFFFFFFFFFFFFFFF4D
:1003C000FFFFFFFFFFFFFFFFFFFFFFFFFFFFFFFF3D
:1003D000FFFFFFFFFFFFFFFFFFFFFFFFFFFFFFFF2D
:1003E000FFFFFFFFFFFFFFFFFFFFFFFFFFFFFFFF1D
:1003F000FFFFFFFFFFFFFFFFFFFFFFFFFFFFFFFF0D
:10040000FFFFFFFFFFFFFFFFFFFFFFFFDEF9FFFF23
:1004100010B5054C237833B9044B13B10448AFF33E
:1004200000800123237010BDB091FF1F0000000069
:1004300034880000084B10B51BB108490848AFF3D9
:1004400000800848036803B910BD074B002BFBD0A0
:10045000BDE81040184700BF00000000B491FF1F26
:1004600034880000B091FF1F0000000008B540F67E
:10047000AC5000F067FC0E21084801F087FE0848E8
:1004800002F08CF9074800F00FF94FF4F06000F02B
:1004900017FD2620BDE8084000F088BD5883000005
:1004A0005087FF1F0C92FF1F2DE9F0410023274EBC
:1004B0001946F1540133182B244AFAD10F23002492
:1004C00001251370224F23462046AE46B02104E09A
:1004D0000B2B20D011F0FF0124D037F8142012B2DA
:1004E0001A4100F1010C013312F0010F0EFA00F86D
:1004F00001F1FF315FFA8CF0DBB204D0725D48EAA3
:100500000202D2B272550828E2D101350B2BEDB2AE
:100510004FF00000DED1013411F0FF01E4B24FF0E2
:100520000003DAD13B8C1BB2012B09D07B8C1BB2B0
:10053000012B03D1F37D43F00203F375BDE8F08195
:10054000F37D43F00103F375F0E700BFF091FF1F67
:10055000CC91FF1F70B500F0D3FB094E0446002577
:1005600000F0CEFB001B7B28FAD900F0C9FB044643
:10057000705D013500F046FD192DF1D170BD00BF51
:10058000F091FF1F38B5134A134B1449144800F07B
:1005900005FAE8B1114D002435F81420114912482C
:1005A00012B2013402F012F9102CF5D10A4B094AAB
:1005B0001B7812780D490C4802F008F907490848E1
:1005C00000F0BCF8FFF770FFBDE83840FFF7C2BF8E
:1005D00038BD00BF4893FF1F0992FF1FCC91FF1F3A
:1005E0000C92FF1F688300005087FF1F708300007C
:1005F00010B5064C0649204600F036F82046054A5C
:100600000549BDE8104003F04BBD00BF0C92FF1F31
:100610003087FF1F2087FF1F8D08000010B504469C
:1006200002F072F8204610BD10B50B4C2368182B51
:1006300005DD0A4802F068F80023236010BD084B6E
:100640002268186807490368895C1B689847236813
:100650000133236010BD00BF8C93FF1F8493FF1FE5
:100660009893FF1F6893FF1FF0B541F658320F248F
:10067000DFF830E0C0F8381108270021AC2640F23E
:10068000137582600422C0F800E080F82870468567
:1006900085850471C47141714173827180F827208E
:1006A000F0BD00BFA08601002DE9F84FB0F82A90F8
:1006B0000024804604730546484603F049FB35F89C
:1006C0002C7F8246384603F043FB514603F08EFAF6
:1006D000014683464FF0804003F046FC4FF07C51CA
:1006E0000646584603F08CFB514603F081FA31462A
:1006F00000F1004003F084FB234608F16C0108F18F
:100700004C0408F1AC020233202B25F8029F24F898
:10071000027F41F8046F42F8040FF4D1D8F8380191
:10072000D8F80010036836221B6A9847024BD8F8A5
:1007300038211A60BDE8F88F9893FF1F2DE9F0412A
:100740004C4B02791A70002973D0B1F800E04F8841
:10075000B1F8048083F801E0CEF3022ECD880A8937
:10076000B1F80AC08C890E8A1E734EEAC70E83F850
:1007700002E0C8F3802E4EEA450EC7F34517C5F3D5
:10078000C31547EA881745EA0215C2F30612DF705F
:1007900042EACC174FEAA808DF714FEA6C074A8A91
:1007A00083F804801F72CCF34128CF8983F805E0D9
:1007B00048EA8408B1F814E083F80980C4F3841C83
:1007C000C6F302264CEA471C4FEAE70846EAC2078E
:1007D000C2F3451242EA8E169D71CD8A0C8B9E7330
:1007E000CEF380264A8B5F7346EA4506C5F3C315F0
:1007F00045EA0415C4F3061444EAC21457104FEA3C
:10080000AE0E5D749C7483F80AC083F80B8083F885
:100810000FE01E74DF748D8BC98BC2F34122C5F3C8
:10082000841444EA411442EA8502C9101A755C75C1
:10083000997542791A760022DA7572B60D4D0E4C12
:100840000FCD0FC495E8070003C4227062B60B4BAE
:100850001968FF221A7121B1094B0A480B441B1178
:100860001A5441F65F0208490448BDE8F04101F01E
:1008700001BF00BF4C93FF1F6893FF1F8493FF1FAE
:10088000008FFCBF44E400E02906000038B5D0F832
:10089000F030054663B100241859043418B103F050
:1008A00041FCD5F8F030402CF6D1184603F03AFC64
:1008B000D5F8F43063B100241859043418B103F0AA
:1008C00031FCD5F8F430402CF6D1184603F02AFC60
:1008D000284638BDF8B52F4E3368DB07044647D5A8
:1008E0002D4D00F00DFA2B68A268C01A82423CBF61
:1008F0000023237300260127D4F8380103681B69FD
:100900009847002832DD00F0FBF9D4F83831286030
:100910001A68184653699847237BC0B2A0738BB9F5
:100920002379834202D026736073E5E7627B6379A3
:10093000934204D0E379A17913409942F3D127730C
:100940006073D9E7182B04DCE2180133DBB2907333
:100950002373192BE8D16379834216D0E379A27906
:100960001840824211D000202073F8BD0020F8BD4D
:10097000304600F021F90028B2D000F0C1F9064D50
:100980002860304600F01EF9ABE7002323730120F6
:10099000F8BD00BF9093FF1F9493FF1F2DE9F04116
:1009A0000D46174698460446FFF794FF002800F0CE
:1009B000A580002D00F08E80227CE37B43EA022399
:1009C000C3F30A032B80637C227C5B0143EAD203DE
:1009D000C3F30A036B80A27C637CE17C920042EA51
:1009E000931343EA8123C3F30A03AB80237DE27CA4
:1009F000DB0143EA5203C3F30A03EB80637D227DEC
:100A00001B0143EA1213C3F30A032B81A27D637D0A
:100A1000E17D520042EAD31343EA4123C3F30A03C0
:100A20006B81237EE27D9B0143EA9203C3F30A03B9
:100A3000AB81637E227EDB0043EA5213EB81E27ED0
:100A4000A37E43EA0223C3F30A032B82237FE27EC1
:100A50005B0143EAD203C3F30A036B82217F637F06
:100A6000A27F9B0043EA911141EA8221C1F30A016E
:100A7000A982E37FA27FDB0143EA5203C3F30A03A7
:100A8000EB8294F82030E27F1B0143EA1213C3F398
:100A90000A032B8394F8216094F8201094F82230F4
:100AA000760046EAD11141EA4321C1F30A01698384
:100AB00094F8233094F822209B0143EA9203C3F375
:100AC0000A03AB8394F8243094F82320DB0043EA34
:100AD0005213EB83B8F1000F08D094F8253094F846
:100AE0002720134018BF012388F8003037B194F84D
:100AF000253094F82820134002D13B70BDE8F081E6
:100B000001233B70BDE8F08130B4054B054A06492E
:100B1000802400251C711D60184630BC03F0C0BA4B
:100B20008493FF1F2087FF1F1D06000008B5104C8F
:100B300008E0236859050DD423681A050FD42368EB
:100B4000DB0411D423685803F3D500F09FFC23681D
:100B50005905F1D502F012FB23681A05EFD500F014
:100B6000B9FA2368DB04EDD500F04AFBEAE700BFE1
:100B70003480044008B5FFF7D9FF00BF014B1022B5
:100B80001A80704700200540704700BF094908B52A
:100B90000B6830B16A461844A2F58052904202D2E6
:100BA0000860184608BD03F087FA0C2303604FF075
:100BB000FF3008BD2487FF1F0078B0FA80F040099D
:100BC000704700BF01230370704700BFEFF313802D
:100BD00070B9EFF310836BB9EFF305825AB94FF494
:100BE0008070EFF311832BB1984228BF18467047ED
:100BF0004FF0FF3070470F2A01D81846F1E7014B3C
:100C0000D05CEEE7F0E300E010B40F4B53F8302077
:100C100092F880422CB1012369B182F8803010BC77
:100C2000704703EBC0035B681A6841B922F0020207
:100C30001A6010BC704782F8003110BC704742F057
:100C400003021A6010BC7047908300001C4A02EB3C
:100C5000C00301295B6811D004291BD052F8300071
:100C6000002280F8802229B1022920D0032922D035
:100C70001A6070474FF480721A60704752F8300063
:100C80004FF4A27280F880121A601A6822F02002D3
:100C90001A60704752F830104FF4A272012081F8A8
:100CA00080021A601A6842F020021A60704740F20F
:100CB00003121A6070474FF481721A60704700BFC8
:100CC0009083000030B4054B054D064C00221021E6
:100CD0001A602A602060196030BC704714D003404D
:100CE00004D0034000D00340212801D8FFF78CBF77
:100CF000704700BF212801D8FFF7A8BF704700BF89
:100D000072B60C490C4B0D4A1B680868126862B633
:100D1000520102D5322B88BF01300949C3F5BB33DC
:100D20004FF47A72FF33A1FB031302FB00F000EBD8
:100D3000931070479C93FF1F18E000E004ED00E063
:100D4000ABAAAAAA2DE9F843054672B6204F214B5B
:100D5000214A1B683C68126862B6520102D5322BE8
:100D600088BF013495B3C3F5BB331C4EDFF86490E4
:100D7000DFF86480FF334FF47A72A6FB031302FBA3
:100D800004F404EB931472B6D9F800103A68D8F85A
:100D900000E062B6C1F5BB33FF33A6FB03031EF0D0
:100DA000806FC4EB93134FF47A7002D0322988BF5E
:100DB000013200FB0233B3F57A7F04D3013D05D045
:100DC00004F57A74DFE701F02DFDDCE7BDE8F88378
:100DD0009C93FF1F18E000E004ED00E0ABAAAAAA74
:100DE000F8B52D4B2D49DFF8D0E0DFF8D0C02C4E00
:100DF0002C4D2D4C2D4A2E4F4FF4000018604FF013
:100E0000807018604FF0007018604FF080601860BC
:100E10004FF0006018600020086028234BF6FF7137
:100E2000CCF80010CEF80030336013602B602360E4
:100E30003B60B3629362092245F8242CC4F8D80FB2
:100E400005F57F65C7F8D41F07F5FF2707F5FA6793
:100E5000C6F8F83F2B6006F5FF26C4F8D42F05F539
:100E6000FD2504F5FF24386006F2F4761148316060
:100E700005F5FF6504F5FD642B602360026001F059
:100E8000B9FD1920FFF75EFF01F068F840F213107A
:100E9000BDE8F840FFF756BF08E100E004800340DA
:100EA00014800340248003402C8003401C800340B6
:100EB0003480034000800B400C80034008800340D6
:100EC0002B4A2C491368F0B543F4006313600A7889
:100ED000294F2A4E2A4D2B4C2B490023092A3B70BF
:100EE00033702B7023700B703DD01A2A21D0274B02
:100EF0001B780A2B25D01F2B30D01F2827D8002085
:100F000002460125224B234C1A7023495D700422AE
:100F10004FF0020E88273C26402598729A704FF4B5
:100F2000004083F813E05A751F74DE702570086066
:100F3000F0BD1A4B40F213321A60144B1B780A2B87
:100F4000D9D1174B4FF451721F281A60D7D9C0F36B
:100F50004432C0F3471500F01F00D3E7114B4FF4A4
:100F600051721A60C9E7104B40F213321A60BEE7A3
:100F7000348004402887FF1F1094FF1FA593FF1F94
:100F80001894FF1F1194FF1FA493FF1F2987FF1FB1
:100F900000B006402FE400E004E100E004D004408B
:100FA00010B0044000D004400CB00440144B14496D
:100FB0009B7803F0EC0200F003031343420700F0B8
:100FC0000F0248BF43F01003042A8B7013D00C4B60
:100FD0000B4A5B79C10603F0EF0348BF43F01003EF
:100FE00053719379820603F0EF03054A48BF43F03B
:100FF0001003937170478B7943F040038B71E6E7E0
:1010000000B006402DE9F84F234B1B681A053BD56D
:10101000224B1B680BB101221A70DFF89090204D13
:1010200099F80040DFF888801E4E0134272C8ABFD3
:101030004FF0000A5FFA84FA54460746AB462B7815
:101040009C4216D1FFF7C2FD40281FDC33791B06F6
:10105000F5D59BF800300133272B86BF00221346BD
:10106000DAB218F80330DBB2F3712A702B789C42A5
:10107000E8D00D490B4BFFB20120BC2208F80470E8
:10108000087089F800A0DA70BDE8F88FFF28D6DD77
:1010900001F0C8FBD3E700BF348004401494FF1F65
:1010A0001194FF1F00B00640A493FF1F1894FF1F68
:1010B000A893FF1F054A064B10781B78C0B2DBB21D
:1010C000984238BF4030C01A704700BF1094FF1FCD
:1010D000A593FF1FF0B4384B1A7912F0300F2CD0C3
:1010E00072B6997D01F0FF0200293DD062B6334F00
:1010F000334938780D78334E1C46C0B2EDB2431CEC
:10110000402BE17928BF0023AB4202F1FF32C9B284
:101110001CBFF154184612F0FF02F0D12A4B1B6895
:10112000C2B23A704BB1A84236BFC5F14005401B70
:1011300040192728C4BF01221A701F49CA78D2B2A9
:10114000150616D452060DD51B4B1B795B0609D527
:101150001E4B1F491B6800220A7003B11A70164B00
:101160003C22DA70F0BC70474022D9795A7462B6DA
:10117000E3E70B791C06E5D5164B174E1C78337840
:10118000E4B2DBB29C420ED0144D01E0A3420AD07F
:101190000133282B28BF00230879E85CC0B2C8714E
:1011A000087D0728F2D9DBB2034933700B791806A2
:1011B00044BF7C23CB70C5E700B006401094FF1FEE
:1011C000A593FF1FD093FF1FA093FF1F1494FF1F31
:1011D000A493FF1F1894FF1F1194FF1FA893FF1FD4
:1011E000054A064B10781B78C0B2DBB2984238BF74
:1011F0004030C01A704700BF2094FF1F2194FF1F8A
:1012000030B42B4B1A7994061FD52A48DA79037823
:10121000294901333F2B0978C8BF00238B42D2B242
:1012200003D0264CD9B2E2540170254A116861B14D
:10123000244A1278D2B2934236BFC2F140029B1ABE
:101240009B18272BC4BF01230B70194AD378DBB23C
:10125000180611D45A060DD5154B1B795B0609D516
:10126000194B1A491B6800220A7003B11A70104BFF
:101270002C22DA7030BC704711790906EAD514497E
:1012800010480C780178C9B28C420DD04A1C272A2C
:1012900084BF00210A460F4D054C98BFD1B2AA5C0D
:1012A000D2B2E2710170D5E76C21D170D2E700BFF4
:1012B00000C006402094FF1F2194FF1F4C94FF1F85
:1012C0001C94FF1F8D94FF1F9094FF1F8C94FF1F91
:1012D0009494FF1F2494FF1F431E032B14D872B64F
:1012E0000A4951F8230068B170B4094C058834F8F4
:1012F0001320466841F82360521B24F8132062B67D
:1013000070BC704762B6704700207047F094FF1FB2
:101310008096FF1F013803280BD872B6074B53F88D
:10132000203043B100205B680130002BFBD162B656
:101330007047002070471846F9E700BF4495FF1F2B
:1013400030B472B62B4A13781D0706D52A4B196A9A
:10135000002936D0996A002941D053781C0706D558
:10136000254B196C00293ED0996C002939D093780F
:10137000190705D5204B196E002936D0996E89B111
:10138000D3781B0707D51C4BD3F880207AB3D3F84A
:10139000882011213AB162B6184B00221A7030BC75
:1013A00000F068BE0D21154C154D227843F83150E0
:1013B00003EBC1030830013A5860227062B630BCBA
:1013C000704704220D4C0F4D217843F8325003EB47
:1013D000C20308304A1E5860227062B6EFE705214A
:1013E000E1E70921DFE70822ECE70C22EAE7102217
:1013F000E8E700BF2C8500000080FF1F6D95FF1FF0
:10140000C800400088004000431E032B1DD81B4A23
:10141000400140F0100030B4104472B6184CE25C49
:10142000032A1BD8DFE802F00212151703220D88E9
:10143000E25410F0080F14BFC823882343EA054381
:1014400008310360416062B630BC70470830022248
:10145000EDE70522EBE708300422E8E7094A52F8F5
:10146000230038B1084A52F82300416042F82310A3
:1014700062B6E9E742F82310034AF7E70080FF1F4E
:101480007C95FF1F4495FF1F5495FF1F2DE9F04FDA
:10149000DFF80CB3DFF80CA387B044E0AB4F4FEAA2
:1014A000930807EBC809013ED9F8042003F00803AC
:1014B000F6B2A2F1080003F0FF04002B40F0028115
:1014C00057F838301B0C99B222F8081C002B00F09A
:1014D000F0809F4B22F8064C42F8044C53F826202B
:1014E000002A00F0C5829B4D55F8263058609A4C72
:1014F00045F8260034F81630194424F8161000F088
:1015000099FD002800F0AD82944A954B19F0080F20
:1015100000F1080018BF1346C9F8040047F8383036
:1015200008238BF800309BF80040E4B261071AD51D
:101530008C4B1B78A3B18C490A7802F0FF0322B1CF
:10154000013BDBB20B7003B900BE88490A7802F098
:10155000FF032AB1013BDBB20B70002B00F0578276
:1015600004238BF8003004F0080303F0FF02002B83
:1015700000F0CC809AF80030DBB21E098ED19C08B6
:10158000DFF8C89159F8342009EBC401C2F3830293
:10159000013A49680C2A00F28880DFE802F07C7C7E
:1015A0008686868686864786868607000868704D0A
:1015B0004A68704F704E286081B240F28160674B7C
:1015C0006A604FF0010E0022814249F834303A60DF
:1015D000C9F81020C9F8182086F800E05B4C00F22A
:1015E000E380B1F5D06F80F04683B1F5817F00F0E4
:1015F000FC8200F28D82802900F07783822940F0FE
:10160000FA82A98801F07F01042900F2F4825B4884
:101610005B4C89000844227062700278930740F1A5
:10162000588484F800E04FF0020E42E3514F3A68CC
:1016300032B3544B504E5449188834780D784028B2
:10164000864645F0020828BF4FF0400E002C84F07B
:1016500001043470CEEB00000CBF8824C82409EBD1
:10166000C80680B285F0010544EA0E447260188015
:1016700049F8384072440D70002800F045813A6006
:101680003B4B1A88B2F5A06F0FD100219A785970A0
:101690003E4B1A7009E0364A108842F2210290420D
:1016A00000F037812D4A49F83420394A012313705C
:1016B00036E72A4A2A4B19F0080F18BF134647F895
:1016C00038302DE700F0D6FC324A334952F8263044
:1016D000002B00F0D18158688C5D42F8260003F1A0
:1016E0000802C9F80420032C05D8DFE804F02C0216
:1016F000292602228A551A8819F0080F0CBF882360
:10170000C82343EA024347F8383009E7E00700F10D
:101710008181210600F1F281A20706D51F4A2049E6
:1017200013780220DBB213700870E30602D51C4B5D
:1017300010221A7007B0BDE8F08F04228A55DAE74C
:1017400005228A55D7E703228A55D4E70080FF1F78
:10175000F094FF1F9C94FF1F8096FF1FC80040005D
:10176000880040007895FF1F0195FF1F8095FF1F9F
:101770006495FF1F9894FF1F0095FF1FC02007402E
:101780007095FF1FAC94FF1F6C95FF1F98200740BA
:10179000942007404495FF1F7C95FF1F8820074039
:1017A000802007409020074042F22100814200F053
:1017B0002A8100F2D880B1F5086F00F07682B1F589
:1017C000106F40F01882226AB349A8780870120698
:1017D00000F13A83D9F82820B049130600F10C83B0
:1017E000D9F83020AD49150600F10183D9F8382029
:1017F000AA49140600F1F682D9F84020A74910063C
:1018000000F14A83D9F84820A449120600F13F8329
:10181000D9F85020A149130600F13483D9F8582093
:101820009E49150600F12983D9F860209B491406CA
:1018300000F11E83D9F868209849100600F113833F
:10184000D9F870209549120600F10883D9F878205C
:101850009249130600F1FD82D9F880208F491506C0
:1018600000F13183D9F888208C49140600F12583D2
:10187000D9F890208949100600F11983D9F89820E9
:101880008649120600F10D838548864A86490190F3
:101890008648874D874C049700230596029580461D
:1018A0000F4616461D460394306828B1446800F080
:1018B000E1FB2046002CF9D100233360029B3868FD
:1018C0001A46002342F8253028B1446800F0D2FBC4
:1018D0002046002CF9D100223A60019A98F8003095
:1018E0001146002241F8042B039A0191023B4FF06C
:1018F000000122F81510032B00F22B81DFE813F012
:101900007001250170012501BEF1400F18BF0022B2
:10191000B5E6694A0D784878157050708D78C878AA
:101920009570D07010680D79157186284D79897978
:101930005571917100F09B816049614E0A78307851
:1019400082F00105002842F002020D700CBF8821D0
:10195000C82149F8321009EBC20280F001000021D1
:10196000307051609EE642F22120814240F0CB81EE
:10197000544B554C5549A8781D682560CDF804E0B6
:101980000870002002908046844604464B490D783A
:1019900045F0020E09EBCE030393019B002B039B42
:1019A0005C600CBF8824C82444EA080385F0010465
:1019B00049F83E3032700C70DFF8E0E0404BDFF861
:1019C000FC80002840F01E81BCF1400F1BD144F088
:1019D000020C09EBCC03029CDFF8C0E05C60002A3B
:1019E00040F02681020442F088029DF804304EF84F
:1019F0003C20044433700D702346402803D100205E
:101A0000334A3B601080334A012313704DE600F0E7
:101A10009DFCA5E5214B2F4828491A614FF0020E85
:101A200080F800E02C4F0A702C49196099602C4E08
:101A30002C4D2D4C9A610D213970FF213170DFF84A
:101A4000B8E029702270294D294A8EF800109F278E
:101A5000012406F8047C5D600470DA6007B0BDE81C
:101A6000F08F244A47F8380013780133137057E594
:101A700043F826000E4D3AE58B5D032B00F2F08013
:101A800001A252F823F000BF21150000211500002B
:101A9000451B00003F1B00007895FF1F0080FF1FC3
:101AA0005495FF1FF094FF1F4495FF1F7C95FF1F67
:101AB0009C94FF1F8096FF1F8896FF1F6C95FF1F49
:101AC0000095FF1F9C93FF1F9096FF1F9095FF1F8F
:101AD000AC94FF1F94200740C020074088004000BE
:101AE000882007408020074098200740B094FF1FBF
:101AF0000495FF1F6D95FF1F8C200740C149C24B05
:101B000080220D2008701A70A2077FF50EAE05E640
:101B100040F20232914240F0EE80A98801F07F014C
:101B2000042968D86A88002A65D1B648CDF804E04F
:101B300089000844017841F00201017021E7012386
:101B40008B55EDE400238B55EAE44FF0010388F850
:101B500000300135042D06F1040607F1040708F1F1
:101B600001087FF4A1AEA94CA94B2278A94D049F8E
:101B7000059E002129701A70130700F10581627813
:101B8000A549DFF8A0820A7010074FF00001C9F8DC
:101B90003010C9F8381000F1E080A049A2780A702E
:101BA0000021C9F85010C9F858101107DFF87482E5
:101BB00000F10181E2789A499A4C0A7000211207DB
:101BC000C9F87010C9F8781000F1B080337801932B
:101BD000002183F00102C9F89010C9F89810D0E6EE
:101BE0004FF0000388F80030B3E7A98801F07F01C7
:101BF000042940F28D80834A0F2313708A4A0123FF
:101C0000137052E540287FF6E2AE44F002040EEB7A
:101C1000C401029E4E60BAB19DF80410834A197047
:101C20003346403888F8005040334EF83420E7E619
:101C30009DF8043033700204029B0D7042F0C8021C
:101C400003444EF83C20D8E69DF804101970029B1E
:101C5000774A88F80050403840334EF83420CFE6B9
:101C600019F0080F0CBF022303238B5558E4714A67
:101C70000F21117060E6704A5468002CBBD0688850
:101C8000B5F804E003E00C325468002CB3D013889C
:101C90008342F8D153887345F5D1000A03280CBF5D
:101CA00094F800E0B2F808E003E0644A644C12786B
:101CB0002270E888704580F03F8162490D784028A5
:101CC000844645F0020E28BF4FF0400C04EB0C0395
:101CD00009EBCE02029301235460CCEB00004FEAE3
:101CE0000C4800220193C8245EE6554C4FF0020ECA
:101CF00022706270DDE7B1F5A06F7FF47CAF012345
:101D0000002201933DE642F221329142F7D072E780
:101D10006A88002A7FF46FAF3A48CDF804E0890062
:101D20000844017821F0020101702AE600F082F9EE
:101D3000002800F0EF8008303D4AC4F88400C4F861
:101D4000802000F077F9002800F0DE800830374A64
:101D5000C9F88C00C9F8882038E700F06BF9002832
:101D600000F0C0800830324AC8F84400C8F840206B
:101D700000F060F9002800F0AF8008302B4AC9F865
:101D80004C00C9F8482008E700F054F9002800F09A
:101D9000CD800830264AC9F82400C9F8202000F078
:101DA00049F9002800F0BC800830204AC9F82C000E
:101DB000C9F82820E3E600F03DF9002800F09E80F5
:101DC00008301B4AC8F86400C8F8602000F032F9F7
:101DD000002800F08D800830144AC9F86C00C9F85A
:101DE0006820E7E6C86B083800F044F904E5486B62
:101DF000083800F03FF9F9E4C86A083800F03AF909
:101E0000EEE400BFC0200740802007402C85000082
:101E1000C42007406D95FF1FC8200740CC20074015
:101E2000D02007400080FF1F94200740C8004000DA
:101E3000880040000195FF1F308500007895FF1F46
:101E40007095FF1F6C95FF1F606A083800F012F94B
:101E5000C0E4C86F083800F00DF9FDE4486F083899
:101E600000F008F9F2E4C86E083800F003F9E7E47E
:101E7000486E083800F0FEF8DCE4C86D083800F061
:101E8000F9F8D1E4486D083800F0F4F8C6E4C86CFD
:101E9000083800F0EFF8BBE4486C083800F0EAF8C6
:101EA000B0E4D1F89C00083800F0E4F8ECE4D1F894
:101EB0009400083800F0DEF8E0E4D1F88C0008382F
:101EC00000F0D8F8D4E4D1F88400083800F0D2F853
:101ED000C8E44FF0020EECE62A78C9F84800013257
:101EE0002A705AE62A78C8F8400001322A703FE783
:101EF0002A78C9F8680001322A705BE62A78C8F8A7
:101F0000600001322A7061E72A78C9F8880001323E
:101F10002A705BE62A78C4F8800001322A7010E744
:101F20002A78C9F8280001322A7028E62A78C9F8E8
:101F3000200001322A7032E7BEF1400FF44628BF7C
:101F40004FF0400C04EB0C0302930123CCEB0E008A
:101F50004FEA0C480022019318E500BFF8B501F0E4
:101F600093F9294B29482A4C2A4F2B4DDFF8BCC046
:101F7000DFF8BCE0294E00221A605A609A60DA60ED
:101F80001A615A619A61DA611A625A629A62DA6275
:101F90001A635A639A63DA631A645A649A64DA6455
:101FA0001A655A659A65DA651A665A669A66DA6635
:101FB0001A675A679A67DA67C3F880200168C3F81E
:101FC000842041F480210160C3F307212170C3F311
:101FD0000740134938701B0E2B70FF238CF800301C
:101FE000104D8EF8003010480B700123337084F8C8
:101FF000642070264FF40074102207F82C3C2E70D9
:10200000046081F8F820F8BD0080FF1F3480044090
:102010009C200740B0200740B42007409420074090
:102020001020074049E400E008E100E0802007407C
:102030008820074072B60D480268B2FA82F30B2B73
:1020400010DC4FF00041D94022EA0102026062B682
:10205000074803EBC303DB00C2180021C150104640
:102060005160704762B60020704700BF2C87FF1F89
:10207000BC83FF1F0D4B0E4AC31AA2FB03231B098F
:102080000B2B0CD80B4A127852B972B60A484FF093
:102090000041026821FA03F31A43026062B67047F6
:1020A000064A1278002AF0D0FFF74AB9BC83FF1F16
:1020B000398EE3386D95FF1F2C87FF1F7895FF1F22
:1020C00038B50F4D286878B143880288C1180133AC
:1020D00093420C7A02D24380204638BDFFF7CAFFF4
:1020E000002320462B6038BD064B1B782BB1032004
:1020F000FFF7F2F828600028E6D14FF0FF3038BD36
:102100008C95FF1F7895FF1F10B5094C206818B1FA
:1021100043881844007A10BD064B1B782BB103206E
:10212000FFF7DAF820600028F2D14FF0FF3010BD41
:102130008C95FF1F7895FF1F044B054A1B689088FC
:102140001BB11A885B88D31A184470478C95FF1FFF
:102150008096FF1F0B4B1B789BB110B50A4C206873
:1021600048B1FFF787FF002303202360FFF7B4F88F
:1021700030B1FFF77FFF0320FFF7AEF80028F8D15A
:1021800010BD70477895FF1F8C95FF1F2DE9F04F0C
:10219000DFF8F89083B0012289F80020019169B33B
:1021A000DFF8EC80364F019E8346D8F80000B0B3CC
:1021B000344D4488C4F14001B14228BF314604EB9C
:1021C000010E00221FFA8EFE2A70761AA0F802E095
:1021D00000F1080251B1013C224459441BF8014B63
:1021E00002F8014F8B45F9D1B0F802E0BEF13F0F84
:1021F0000BD8254A05211170002ED6D10198002355
:1022000089F8003003B0BDE8F08F4022028001461B
:102210000420FFF7F9F80022C8F80020E9E73A782F
:102220002AB3184D4AF2F9244FF0010A07E0013CA5
:1022300016D02A78A2B900F0F5FA3A78BAB104209B
:10224000FFF768F80728F2D889F800A0FFF7F2FE38
:10225000C8F800000028ACD10C4B013C1870E8D144
:1022600001234FF0FF302B7003B0BDE8F08F002347
:102270004FF0FF3089F8003003B0BDE8F08F00BFA9
:102280007895FF1F8895FF1F8095FF1F8195FF1F81
:102290008495FF1F00B583B002AB012103F8010D47
:1022A0001846FFF773FF03B05DF804FB38B50E4D19
:1022B0000E4C28680123237028B140880023237026
:1022C000C0F1400038BD0A4B1B7813B900202070C4
:1022D00038BD0420FFF71EF80728F7D8FFF7AAFE3D
:1022E00028600028E9D1F1E78495FF1F8195FF1F41
:1022F0007895FF1FF8B5114B1B788BB1104E114D1F
:10230000346801272F7064B10F4A63880027177063
:10231000214623800420FFF777F8376000232B70D5
:10232000F8BDFFF787FE084B28B1014604201C705A
:10233000FFF76AF8F2E71F70F0E700BF7895FF1F1C
:102340008495FF1F8195FF1F8095FF1F38B50E4BA9
:102350001B7873B90D4C216861B103F0FF054B8800
:102360000B800420FFF750F8256038BD084B012290
:102370001A7038BDFFF75EFE0028F7D00146BDE8B1
:1023800038400420FFF740B88195FF1F8495FF1F58
:102390008095FF1F10B4EFF3108272B6437F33B9FC
:1023A000017F012907D003290FD00123437702B908
:1023B00062B610BC7047124C2168A1B1114943614B
:1023C0000B68836108605861EFE70F4C216881B1A9
:1023D0000E4943610B688361086058610C4B4FF0F4
:1023E00080511960E1E7074B41618161206018600D
:1023F000DBE7064B4161816120601860EEE700BFBA
:10240000A495FF1FA095FF1F9495FF1F9895FF1F90
:1024100004ED00E010B4047F4160022CC26002D0E1
:1024200010BCFFF7B7BF836810BC184770B5EFF357
:10243000108272B60C4C206880B10C4E00254369A6
:10244000236073B19D6102B962B64577836898478E
:10245000EFF3108272B620680028F0D102B962B69C
:1024600070BD3360EFE700BF9495FF1F9895FF1F85
:10247000FFF7DCBF184A30B41468002C27D003687B
:1024800021688B420ED2CB1A00218460C160236088
:10249000E06010600223037530BC704711688B4206
:1024A000144608D3A2685B1A0360002AF6D1826042
:1024B000C460A060EEE7D268C2608460E060C56876
:1024C000CB1A0222A8602360027530BC704784607A
:1024D000C4601060DEE700BF9C95FF1FF8B5224E78
:1024E00034682CB32368002B3AD1204F1D4604E0FA
:1024F0003468ECB12368002B32D1A36803B1DD60EE
:1025000020693360036825751B68BB4221D1037FB6
:102510004560022BC46020D0FFF73CFF6368002BAE
:10252000E6D023602046FFF7A5FF3468002CE1D1F8
:10253000EFF3108372B60E4A00211068116003B9E0
:1025400062B628B18468FFF795FF20460028F9D1CC
:10255000F8BD224600219847E0E783689847DDE709
:10256000013B2360E4E700BF9C95FF1F152400009A
:10257000AC95FF1F024A136801331360FFF7AEBF2B
:102580009C93FF1F0368C9B21B6818470368C9B250
:102590001B6818470368C9B21B6818470368C9B2AB
:1025A0001B68184708B5084600F0DAFC012008BD92
:1025B00008B5084600F0D4FC012008BD38B508462F
:1025C0000D4602F03DFB04460146284600F0D2FCD1
:1025D000204638BD10B508461446114600F0CAFC26
:1025E000204610BD00F0A4BD08B5084600F090FCE0
:1025F000003018BF012008BD08B5084600F066FC91
:10260000003018BF012008BD0846114600F0FABB93
:10261000084600F031BC00BF084600F0D7BB00BF41
:1026200000F072BB4B0803F1376000F5D830B0FB07
:10263000F1F000F0C7BA00BF10B54B0803F13760E6
:10264000144600F5D830B0FBF1F000F0BBFA20469C
:10265000BDE8104000F02CBB00F052BD00F01CBDE6
:1026600000F00ABD00F0EABC00F0F4BC704700BF07
:10267000704700BF0368F0B4FBB1002501249D60E2
:10268000DC601B4C1A601C44241104F144056A11DF
:10269000032692009E60174F0679174B47F82410C7
:1026A00002F1604202F5614205F01F05012000FAC7
:1026B00005F5E6541560F0BC7047104C236843F4F0
:1026C0000003236000BF0E4B0E4DA4F58734A4F524
:1026D0009E7401261E60234604609C68002CD0D0A6
:1026E0001033AB420360F8D1002303601846E2E7E1
:1026F000008FFCBF4087FF1F44E400E03C800440A3
:1027000000700340407103400168A9B10B4BF0B465
:102710000B441B110A4E0B4F0B4D46F8237003F16F
:10272000440202F01F0401235211A340002445F883
:1027300022308C600460F0BC704700BF008FFCBF8B
:102740004087FF1F7126000080E100E0024A034B32
:10275000012111601B6818470C7103404087FF1F5F
:10276000024A034B012111605B6818471C7103404A
:102770004087FF1F024A034B012111609B681847E5
:102780002C7103404087FF1F024A034B0121116057
:10279000DB6818473C7103404087FF1F00B5064ABD
:1027A000036812885B6883B001A9ADF80420022297
:1027B000984703B05DF804FB0085000010B503687E
:1027C00014465B689847204610BD00BF0EB400B5A4
:1027D00082B003AA52F8041B019202F0C5FA02B0BB
:1027E0005DF804EB03B0704708B5FDF73FFEFDF759
:1027F000C9FE00F017F8FAE7FFF7ACBCFFF784BC9E
:10280000FFF75EBCFFF798BCFFF774BDFFF74EBD46
:1028100008461146FFF7BABC0846FFF73BBD00BFAC
:10282000704700BF38B5224C237803B138BD01236F
:102830002370FFF781FC70BB00F01EFC40BBFEF76D
:1028400039FC10BBFEF7CCFCE0B900232370EFF39A
:102850000583002BEAD1EFF3108172B6154B18688F
:10286000E0B1154C2278CAB945691D600123237077
:10287000C5B1AA6101B962B600254577836898475A
:102880002570D3E700F044FDDFE700F03FFDD9E716
:10289000FFF7ECFED3E7FFF7C3FFCDE70029C5D173
:1028A00062B638BD054B1D600029E5D1E3E700BFE6
:1028B000B095FF1FA495FF1FA895FF1FA095FF1FB0
:1028C000844641EA000313F003036DD1403A41D33B
:1028D00051F8043B40F8043B51F8043B40F8043BFA
:1028E00051F8043B40F8043B51F8043B40F8043BEA
:1028F00051F8043B40F8043B51F8043B40F8043BDA
:1029000051F8043B40F8043B51F8043B40F8043BC9
:1029100051F8043B40F8043B51F8043B40F8043BB9
:1029200051F8043B40F8043B51F8043B40F8043BA9
:1029300051F8043B40F8043B51F8043B40F8043B99
:1029400051F8043B40F8043B51F8043B40F8043B89
:10295000403ABDD2303211D351F8043B40F8043B29
:1029600051F8043B40F8043B51F8043B40F8043B69
:1029700051F8043B40F8043B103AEDD20C3205D339
:1029800051F8043B40F8043B043AF9D2043208D031
:10299000D2071CBF11F8013B00F8013B01D30B88A3
:1029A00003806046704700BF082A13D38B078DD081
:1029B00010F003038AD0C3F10403D21ADB071CBF53
:1029C00011F8013B00F8013B80D331F8023B20F8BD
:1029D000023B7BE7043AD9D3013A11F8013B00F8F6
:1029E000013BF9D20B7803704B7843708B7883707E
:1029F0006046704730B42948294A2A4B2A4D602442
:102A0000E121047011701B78284C082B30D00A2B60
:102A10002748284937D00C2B0CBF35223D221223E2
:102A20002A60236002600B60234B24491B78244AF0
:102A3000BBB101230B601360224B23491B78234A4F
:102A4000012B26D9042B0FD9082B1ED9102B94BF8C
:102A5000862387230B6013601D4B01221A7030BC44
:102A600070470B601360E7E784230B601360F3E7A4
:102A700000F58E200F490830012213232A602360BD
:102A800002600B60D0E73922F7E785230B60136003
:102A9000E2E780230B601360DEE700BF00400740E1
:102AA000014007406087FF1F08B003400CB003409F
:102AB00008B00B400CB00B40B295FF1F20B0034094
:102AC00020B00B406187FF1F24B0034024B00B40AF
:102AD000B195FF1FF0B44D1E2E46002400E00134D6
:102AE000B0FBF2F302FB1300092800F130078ABFA4
:102AF0003730F8B2C0B206F8010F1846002BEED1FD
:102B00000A1953704CB1107815F8016F2870013311
:102B1000E01A834202F80169F5DB0846F0BC704711
:102B20002DE9F84F214B1B6807460BB101221A70A3
:102B3000DFF888901E4D99F80040DFF884801D4E24
:102B400001343F2C8ABF4FF0000A5FFA84FA5446E2
:102B5000AB462B78A34216D1FEF738F840281FDC8D
:102B600033791B06F5D59BF8003001333F2B86BF28
:102B700000221346DAB218F80330DBB2F3712A7080
:102B80002B78A342E8D00C490A4BFFB208F8047036
:102B90000120BC22087089F800A0DA70BDE8F88F27
:102BA000FF28D6DDFFF73EFED3E700BF4496FF1FA8
:102BB0004196FF1F00A006404096FF1F4896FF1F4A
:102BC000BC95FF1F2B4A2C491368F0B543F4806372
:102BD00013600A78294F2A4E2A4D2B4C2B4900238B
:102BE0003B7033702B7023700B70002A3DD0152A78
:102BF00021D0274B1B78012B25D0052B30D01F2847
:102C000027D8002002460125224B234C1A70234965
:102C10005D7004224FF0020E88273C2640259872F2
:102C20009A704FF4005083F813E05A751F74DE70E9
:102C300025700860F0BD1A4B40F213321A60144B35
:102C40001B78012BD9D1174B4FF451721F281A60F2
:102C5000D7D9C0F34432C0F3471500F01F00D3E7C3
:102C6000114B4FF451721A60C9E7104B40F2133206
:102C70001A60BEE734800440FC95FF1FB895FF1F23
:102C8000B995FF1F4896FF1F4196FF1F4096FF1FF3
:102C90006287FF1F00A006402DE400E004E100E091
:102CA00018C0044044A004401CC0044040A004409C
:102CB000144B14499B7803F0EC0200F00303134318
:102CC000420700F00F0248BF43F01003042A8B7044
:102CD00013D00C4B0B4A5B79C10603F0EF0348BFDE
:102CE00043F0100353719379820603F0EF03054A12
:102CF00048BF43F01003937170478B7943F0400352
:102D00008B71E6E700A00640234B1B685B0541D5AD
:102D100010B5224C237823B1FFF784FD2378002BD4
:102D2000FAD11F481F4A204B4FF400540021046081
:102D3000D1701B78FBB1152B03D11C4B40F2031251
:102D40001A601B4B1B7803F07F03012B1DD0052B52
:102D500003D1184B40F203121A60174A114B17485F
:102D6000174912681C79DB79002303700B700AB1D4
:102D70000123137010BD134B40F203121A600C4B69
:102D80001B7803F07F03012BE1D10F4B40F20312BC
:102D90001A60E2E7704700BF348004404096FF1F8E
:102DA00084E100E000A00640FC95FF1F18C004402D
:102DB0006287FF1F1CC00440B495FF1FB895FF1F1A
:102DC000B995FF1F40A0044044A004400A4A38B50A
:102DD0000546137803F0FF04002BFAD101212846A1
:102DE000FDF788FF21462846FDF77EFF034A044B86
:102DF00052F835201A6038BD4096FF1F90830000BE
:102E00004496FF1F09B140F08000174A137898429A
:102E100016D010B4154C246864050FD503F07F0359
:102E2000012B1CD0052B11D0002900F07F0114BF0D
:102E30006023442301290DD0052902D0107010BC55
:102E400070470B4943F440730B60F7E7084B0024CD
:102E50001C60E9E7074943F440730B60EEE7054B5C
:102E600000241C60E0E700BF6287FF1F348004403D
:102E70001CC0044044A00440104B1A7882420AD07F
:102E80000F490968490505D5AAB1152A09D068B1C5
:102E9000152801D0187070470A4A40F213311160AA
:102EA000F8E7084A002111600028F1D1064A40F2F3
:102EB00013311160EEE704490A60E8E7FC95FF1F53
:102EC0003480044018C0044040A004400D4B1B68EF
:102ED00013F4806305D0212805D90B4B002018601E
:102EE000704718467047094B10B5074C53F83030FF
:102EF00023600121FDF7FEFE236800221A700120E5
:102F000010BD00BF34800440B495FF1F90830000C3
:102F10000F4B1B6813F4806308D0122808D01428C4
:102F200011D00C4A537B03F0FE035373002070470B
:102F3000094B40F202321A60064A537B43F0010308
:102F4000537301207047054B40F202321A60F3E7D9
:102F50003480044000A006400CA0044014C004408B
:102F6000034B1B685B0501D5FFF7DABD704700BF57
:102F7000348004402DE9F84F294B1B685A0548D589
:102F8000284B1B6805460BB101221A7005EB010A9C
:102F9000554540D2DFF89C80234CDFF89C90234FAE
:102FA0000AE015F8012B09F80B20214A0123AA4554
:102FB000137088F800602ED098F80030227803F162
:102FC000010BBBF13F0F86BF0026B3465FFA8BF6BD
:102FD0009345E6D1BC22FA7005E03A7913060BD48A
:102FE00022789345DDD1FDF7F1FD4028F5DDFF287E
:102FF000F6DDFFF717FCF3E7227801323F2A86BFA0
:1030000000210A46D1B219F80220D2B2FA71217019
:10301000E6E7BDE8F88F054BBC22DA70BDE8F88F13
:10302000348004404496FF1F4196FF1F00A00640D5
:103030004096FF1F4896FF1FBC95FF1F10B5044C1C
:10304000237823B1FFF7EEFB2378002BFAD110BDD4
:103050004096FF1F064A074B1B781078DBB2C0B2C0
:1030600083422CBF3F3000F1FF30C01A704700BFD1
:103070004196FF1F4896FF1F054A064B10781B78A4
:10308000C0B2DBB2984238BF4030C01A704700BFB0
:10309000B895FF1FB995FF1F30B4154B154C1A7822
:1030A0002378D2B2DBB29A421ED001333F2B0ED925
:1030B0001149124B087819680023C0B2237021B15E
:1030C000D31A1A2B01DC00230B7030BC70470A485E
:1030D0000A49C05C0968DDB2C0B225700029F4D08D
:1030E0009A4238BF4032EBE74FF0FF30EDE700BFC8
:1030F000B895FF1FB995FF1F0096FF1FB495FF1FDE
:10310000084A094B12781B78DBB29A4207D0013388
:10311000402B28BF0023054AD05CC0B270474FF057
:10312000FF307047B895FF1FB995FF1F0096FF1F2E
:103130000D4B1B685B0516D530B40C4B0C4CDA7884
:103140000C480D4902F0CB024025DA705D74DA7844
:1031500042F03402DA7023780268DBB20B700AB1F5
:103160000023137030BC70473480044000A0064038
:10317000B995FF1FB495FF1FB895FF1FF0B4384BEA
:103180001A7912F0300F2CD072B6997D01F0FF023F
:1031900000293DD062B6334F334938780D78334E2D
:1031A0001C46C0B2EDB2431C402BE17928BF00237E
:1031B000AB4202F1FF32C9B21CBFF154184612F003
:1031C000FF02F0D12A4B1B68C2B23A704BB1A84241
:1031D00036BFC5F14005401B40192728C4BF012256
:1031E0001A701F49CA78D2B2150616D452060DD5E8
:1031F0001B4B1B795B0609D51E4B1F491B68002220
:103200000A7003B11A70164B3C22DA70F0BC70479A
:103210004022D9795A7462B6E3E70B791C06E5D5EA
:10322000164B174E1C783378E4B2DBB29C420ED0BA
:10323000144D01E0A3420AD00133402B28BF0023E4
:103240000879E85CC0B2C871087D0728F2D9DBB202
:10325000034933700B79180644BF7C23CB70C5E754
:1032600000A00640B895FF1FB995FF1F0096FF1FED
:10327000B495FF1F4496FF1F4096FF1F4896FF1FFF
:103280004196FF1FBC95FF1F70B584B072B6194BF5
:10329000194D1A48702241260F2480211A702E7071
:1032A0001A460470197013781B06FCD5144B186865
:1032B00062B6144B144C984298BF00EB800001A9F1
:1032C00098BF40000A22FFF705FC01A92046002311
:1032D00011F8012B01333AB10A2B20F8022FF7D154
:1032E0001623237004B070BD5B00DBB2237004B002
:1032F00070BD00BF0000024007000240060002400F
:10330000080002407F969800F087FF1F704700BFBB
:10331000704700BF81F0004102E000BF83F000432E
:1033200030B54FEA41044FEA430594EA050F08BF60
:1033300090EA020F1FBF54EA000C55EA020C7FEA24
:10334000645C7FEA655C00F0E2804FEA5454D4EBA1
:103350005555B8BF6D420CDD2C4480EA020281EA6B
:10336000030382EA000083EA010180EA020281EAA3
:103370000303362D88BF30BD11F0004F4FEA0131F5
:103380004FF4801C4CEA113102D0404261EB410104
:1033900013F0004F4FEA03334CEA133302D052428A
:1033A00063EB430394EA050F00F0A780A4F1010446
:1033B000D5F1200E0DDB02FA0EFC22FA05F2801880
:1033C00041F1000103FA0EF2801843FA05F3594166
:1033D0000EE0A5F120050EF1200E012A03FA0EFCE5
:1033E00028BF4CF0020C43FA05F3C01851EBE3710F
:1033F00001F0004507D54FF0000EDCF1000C7EEB2C
:1034000000006EEB0101B1F5801F1BD3B1F5001F69
:103410000CD349085FEA30004FEA3C0C04F1010488
:103420004FEA445212F5800F80F09A80BCF1004FB1
:1034300008BF5FEA500C50F1000041EB045141EA33
:10344000050130BD5FEA4C0C404141EB010111F434
:10345000801FA4F10104E9D191F0000F04BF0146DF
:103460000020B1FA81F308BF2033A3F10B03B3F1BD
:1034700020020CDA0C3208DD02F1140CC2F10C024D
:1034800001FA0CF021FA02F10CE002F11402D8BFAB
:10349000C2F1200C01FA02F120FA0CFCDCBF41EA77
:1034A0000C019040E41AA2BF01EB0451294330BD46
:1034B0006FEA04041F3C1CDA0C340EDC04F1140423
:1034C000C4F1200220FA04F001FA02F340EA0300FA
:1034D00021FA04F345EA030130BDC4F10C04C4F140
:1034E000200220FA02F001FA04F340EA0300294620
:1034F00030BD21FA04F0294630BD94F0000F83F46A
:10350000801306BF81F480110134013D4EE77FEA4C
:10351000645C18BF7FEA655C29D094EA050F08BF98
:1035200090EA020F05D054EA000C04BF1946104679
:1035300030BD91EA030F1EBF0021002030BD5FEABD
:10354000545C05D14000494128BF41F0004130BDE5
:1035500014F580043CBF01F5801130BD01F0004539
:1035600045F0FE4141F470014FF0000030BD7FEAAC
:10357000645C1ABF194610467FEA655C1CBF0B46A7
:10358000024650EA013406BF52EA033591EA030FBE
:1035900041F4002130BD00BF90F0000F04BF0021B6
:1035A000704730B54FF4806404F132044FF00005E9
:1035B0004FF0000150E700BF90F0000F04BF002162
:1035C000704730B54FF4806404F1320410F00045C8
:1035D00048BF40424FF000013EE700BF42004FEAC3
:1035E000E2014FEA31014FEA02701FBF12F07F4340
:1035F00093F07F4F81F06051704792F0000F14BF3D
:1036000093F07F4F704730B54FF4607401F0004580
:1036100021F0004120E700BF50EA010208BF7047D7
:1036200030B54FF000050AE050EA010208BF7047CC
:1036300030B511F0004502D5404261EB41014FF435
:10364000806404F132045FEA915C3FF4DCAE4FF039
:1036500003025FEADC0C18BF03325FEADC0C18BF20
:10366000033202EBDC02C2F1200300FA03FC20FA71
:1036700002F001FA03FE40EA0E0021FA02F11444BE
:10368000C1E600BF70B54FF0FF0C4CF4E06C1CEAD3
:1036900011541DBF1CEA135594EA0C0F95EA0C0F48
:1036A00000F0DEF82C4481EA030621EA4C5123EABB
:1036B0004C5350EA013518BF52EA033541F48011EA
:1036C00043F4801338D0A0FB02CE4FF00005E1FB9D
:1036D00002E506F00042E0FB03E54FF00006E1FBE7
:1036E00003569CF0000F18BF4EF0010EA4F1FF042A
:1036F000B6F5007F64F5407404D25FEA4E0E6D416A
:1037000046EB060642EAC62141EA55514FEAC5207A
:1037100040EA5E504FEACE2EB4F1FD0C88BFBCF5F6
:10372000E06F1ED8BEF1004F08BF5FEA500E50F1A7
:10373000000041EB045170BD06F0004646EA01016D
:1037400040EA020081EA0301B4EB5C04C2BFD4EB9F
:103750000C0541EA045170BD41F480114FF0000E98
:10376000013C00F3AB8014F1360FDEBF002001F006
:10377000004170BDC4F10004203C35DA0C341BDC80
:1037800004F11404C4F1200500FA05F320FA04F052
:1037900001FA05F240EA020001F0004221F0004186
:1037A00010EBD37021FA04F642EB06015EEA430EF9
:1037B00008BF20EAD37070BDC4F10C04C4F1200529
:1037C00000FA04F320FA05F001FA04F240EA0200DC
:1037D00001F0004110EBD37041F100015EEA430EAD
:1037E00008BF20EAD37070BDC4F1200500FA05F2CD
:1037F0004EEA020E20FA04F301FA05F243EA02034C
:1038000021FA04F001F0004121FA04F220EA02005A
:1038100000EBD3705EEA430E08BF20EAD37070BDA0
:1038200094F0000F0FD101F00046400041EB010180
:1038300011F4801F08BF013CF7D041EA060195F062
:10384000000F18BF704703F00046520043EB03031C
:1038500013F4801F08BF013DF7D043EA0603704709
:1038600094EA0C0F0CEA135518BF95EA0C0F0CD014
:1038700050EA410618BF52EA4306D1D181EA03015A
:1038800001F000414FF0000070BD50EA410606BF54
:103890001046194652EA430619D094EA0C0F02D199
:1038A00050EA013613D195EA0C0F05D152EA0336DE
:1038B0001CBF104619460AD181EA030101F00041FC
:1038C00041F0FE4141F470014FF0000070BD41F045
:1038D000FE4141F4780170BD70B54FF0FF0C4CF41F
:1038E000E06C1CEA11541DBF1CEA135594EA0C0F3E
:1038F00095EA0C0F00F0A7F8A4EB050481EA030E8B
:1039000052EA03354FEA013100F088804FEA033371
:103910004FF0805545EA131343EA12634FEA02223F
:1039200045EA111545EA10654FEA00260EF0004100
:103930009D4208BF964244F1FD0404F5407402D252
:103940005B084FEA3202B61A65EB03055B084FEAE3
:1039500032024FF480104FF4002CB6EB020E75EBE0
:10396000030E22BFB61A754640EA0C005B084FEA08
:103970003202B6EB020E75EB030E22BFB61A754685
:1039800040EA5C005B084FEA3202B6EB020E75EBD0
:10399000030E22BFB61A754640EA9C005B084FEA48
:1039A0003202B6EB020E75EB030E22BFB61A754655
:1039B00040EADC0055EA060E18D04FEA051545EA44
:1039C00016754FEA06164FEAC30343EA52734FEAED
:1039D000C2025FEA1C1CC0D111F4801F0BD141EA66
:1039E00000014FF000004FF0004CB6E711F4801FCB
:1039F00004BF01430020B4F1FD0C88BFBCF5E06FAB
:103A00003FF6AFAEB5EB030C04BFB6EB020C5FEABA
:103A1000500C50F1000041EB045170BD0EF0004E0F
:103A20004EEA113114EB5C04C2BFD4EB0C0541EA41
:103A3000045170BD41F480114FF0000E013C90E63E
:103A400045EA060E8DE60CEA135594EA0C0F08BF02
:103A500095EA0C0F3FF43BAF94EA0C0F0AD150EA01
:103A600001347FF434AF95EA0C0F7FF425AF104694
:103A700019462CE795EA0C0F06D152EA03353FF4BC
:103A8000FDAE1046194622E750EA410618BF52EA39
:103A900043067FF4C5AE50EA41047FF40DAF52EA0D
:103AA00043057FF4EBAE12E74FF0FF3C06E000BFAA
:103AB0004FF0010C02E000BF4FF0010C4DF804CDB7
:103AC0004FEA410C7FEA6C5C4FEA430C18BF7FEA77
:103AD0006C5C1BD001B050EA410C0CBF52EA430CA5
:103AE00091EA030F02BF90EA020F0020704710F125
:103AF000000F91EA030F58BF994208BF90422CBFB4
:103B0000D8176FEAE37040F0010070474FEA410CAC
:103B10007FEA6C5C02D150EA013C07D14FEA430CCA
:103B20007FEA6C5CD6D152EA033CD3D05DF8040B3B
:103B3000704700BF8446104662468C46194663466D
:103B400000E000BF01B5FFF7B7FF002848BF10F144
:103B5000000F01BD4DF808EDFFF7F4FF0CBF012089
:103B600000205DF808FB00BF4DF808EDFFF7EAFF05
:103B700034BF012000205DF808FB00BF4DF808EDC0
:103B8000FFF7E0FF94BF012000205DF808FB00BFB5
:103B90004DF808EDFFF7CEFF94BF012000205DF83F
:103BA00008FB00BF4DF808EDFFF7C4FF34BF01204C
:103BB00000205DF808FB00BF4FEA410C7FEA6C5C17
:103BC00002D150EA013C0AD14FEA430C7FEA6C5C17
:103BD00002D152EA033C02D14FF0000070474FF08F
:103BE0000100704780F0004002E000BF81F000411A
:103BF00042001FBF5FEA410392EA030F7FEA226C93
:103C00007FEA236C6AD04FEA1262D2EB1363C1BF22
:103C1000D218414048404140B8BF5B42192B88BF91
:103C2000704710F0004F40F4000020F07F4018BFB4
:103C3000404211F0004F41F4000121F07F4118BFD4
:103C4000494292EA030F3FD0A2F1010241FA03FC7C
:103C500010EB0C00C3F1200301FA03F100F0004364
:103C600002D5494260EB4000B0F5000F13D3B0F12C
:103C7000807F06D340084FEA310102F10102FE2A9B
:103C800051D2B1F1004F40EBC25008BF20F001000B
:103C900040EA03007047490040EB000010F4000FB9
:103CA000A2F10102EDD1B0FA80FCACF1080CB2EB4C
:103CB0000C0200FA0CF0AABF00EBC25052421843AB
:103CC000BCBFD0401843704792F0000F81F4000150
:103CD00006BF80F400000132013BB5E74FEA410323
:103CE0007FEA226C18BF7FEA236C21D092EA030F8F
:103CF00004D092F0000F08BF0846704790EA010F09
:103D00001CBF0020704712F07F4F04D1400028BF35
:103D100040F00040704712F100723CBF00F5000017
:103D2000704700F0004343F0FE4040F4000070474D
:103D30007FEA226216BF08467FEA236301464202F9
:103D400006BF5FEA412390EA010F40F4800070470C
:103D50004FF0000304E000BF10F0004348BF4042B2
:103D60005FEA000C08BF704743F0964301464FF0EE
:103D700000001CE050EA010208BF70474FF000034A
:103D80000AE000BF50EA010208BF704711F000438B
:103D900002D5404261EB41015FEA010C02BF84465B
:103DA0000146002043F0B64308BFA3F18053A3F5BA
:103DB0000003BCFA8CF2083AA3EBC25310DB01FA01
:103DC00002FC634400FA02FCC2F12002BCF1004F85
:103DD00020FA02F243EB020008BF20F00100704716
:103DE00002F1200201FA02FCC2F1200250EA4C006A
:103DF00021FA02F243EB020008BF20EADC707047B0
:103E00004FF0FF0C1CEAD0521EBF1CEAD15392EABD
:103E10000C0F93EA0C0F6FD01A4480EA010C400299
:103E200018BF5FEA41211ED04FF0006343EA5010F3
:103E300043EA5111A0FB01310CF00040B1F5000F35
:103E40003EBF490041EAD3715B0040EA010062F1E4
:103E50007F02FD2A1DD8B3F1004F40EBC25008BFCE
:103E600020F00100704790F0000F0CF0004C08BFEC
:103E700049024CEA502040EA51207F3AC2BFD2F1B9
:103E8000FF0340EAC250704740F400004FF00003C7
:103E9000013A5DDC12F1190FDCBF00F00040704701
:103EA000C2F10002410021FA02F1C2F1200200FA3F
:103EB00002FC5FEA310040F1000053EA4C0308BF06
:103EC00020EADC70704792F0000F00F0004C02BF57
:103ED000400010F4000F013AF9D040EA0C0093F0D2
:103EE000000F01F0004C02BF490011F4000F013B2C
:103EF000F9D041EA0C018FE70CEAD15392EA0C0F9A
:103F000018BF93EA0C0F0AD030F0004C18BF31F004
:103F1000004CD8D180EA010000F00040704790F0DA
:103F2000000F17BF90F0004F084691F0000F91F07E
:103F3000004F14D092EA0C0F01D142020FD193EA44
:103F40000C0F03D14B0218BF084608D180EA0100CC
:103F500000F0004040F0FE4040F40000704740F0A8
:103F6000FE4040F4400070474FF0FF0C1CEAD05276
:103F70001EBF1CEAD15392EA0C0F93EA0C0F69D0D2
:103F8000A2EB030280EA010C49024FEA402037D03D
:103F90004FF0805343EA111143EA10130CF0004034
:103FA0008B4238BF5B0042F17D024FF4000C8B4224
:103FB00024BF5B1A40EA0C00B3EB510F24BFA3EB04
:103FC000510340EA5C00B3EB910F24BFA3EB9103D4
:103FD00040EA9C00B3EBD10F24BFA3EBD10340EA2E
:103FE000DC001B0118BF5FEA1C1CE0D1FD2A3FF674
:103FF00050AF8B4240EBC25008BF20F00100704729
:104000000CF0004C4CEA50207F32C2BFD2F1FF03CB
:1040100040EAC250704740F400004FF00003013AFC
:1040200037E792F0000F00F0004C02BF400010F4A0
:10403000000F013AF9D040EA0C0093F0000F01F0B4
:10404000004C02BF490011F4000F013BF9D041EAD6
:104050000C0195E70CEAD15392EA0C0F08D1420209
:104060007FF47DAF93EA0C0F7FF470AF084676E7DC
:1040700093EA0C0F04D14B023FF44CAF08466EE7B5
:1040800030F0004C18BF31F0004CCAD130F0004283
:104090007FF45CAF31F000437FF43CAF5FE700BFDB
:1040A0000B460146184600F001B800BF13460A4609
:1040B0000146022000F088BE014B1868704700BF1F
:1040C000308CFF1F70B50F4E0F4D761BB61018BF0A
:1040D000002405D0013455F8043B9847A642F9D195
:1040E0000A4E0B4D761B04F095FBB61018BF00244A
:1040F00006D0013455F8043B9847A642F9D170BD6B
:1041000070BD00BF208800002088000030880000BB
:1041100020880000024B0146186800F00BB800BF71
:10412000308CFF1F024B0146186800F011BF00BF22
:10413000308CFF1F2DE9F04F01F10B05162D83B0D8
:10414000064640F29F8035F0070500F1BF80A94286
:1041500000F2BC8000F06EFBB5F5FC7FC0F09C82E5
:104160006B0A00F0BA80042B00F28381A80900F1E9
:10417000390E4FEA4E033830C44F07EB8303A3F1E7
:1041800008015C68A14207D1ACE0002A80F2AC8053
:10419000E468A14200F0A680636823F003035A1B81
:1041A0000F2AF2DDB9493C6901F1080E744500F0AF
:1041B000B381636823F003035A1B0F2A00F399812C
:1041C000002AC1F814E0C1F810E080F29E80B3F537
:1041D000007F80F06781DB0803F1010C01229B1056
:1041E00002FA03F34A6851F83C80C4F8088001EBF6
:1041F000CC091A43A9F10803E3604A6041F83C4046
:10420000C8F80C40831001249C40944200F28A803C
:10421000144206D120F003006400144200F10400AF
:10422000FAD007EBC009CC468046DCF80C108C4570
:1042300007D173E1002A80F28181C9688C4500F0C2
:104240006D814B6823F003035A1B0F2AF2DD0C46E5
:10425000D1F80CC054F8088F4B1945F001054D609A
:1042600042F00101C8F80CC03046CCF808807B61F0
:104270003B61C3F80CE0C3F808E059609A5000F0C5
:10428000DBFA1FE0102921D800F0D4FA102506230C
:1042900002207E4F07EB8303A3F108025C6894427F
:1042A00000F045816368E168A56823F003032344B7
:1042B00030465A68E96042F001028D605A6000F0B1
:1042C000BBFA0834204603B0BDE8F08F00240C236D
:1042D0002046336003B0BDE8F08F80234FF0400EDE
:1042E0003F2049E770465DE72344E1685A68A568C6
:1042F00042F00102E96030468D605A6000F09CFA9D
:104300000834204603B0BDE8F08F234430465A6895
:1043100042F001025A6000F08FFA0834204603B0E0
:10432000BDE8F08FBC68636823F00308A84504D398
:10433000C5EB08030F2B00F38C80554BDFF8609121
:104340001A68D9F8003001332A4404EB080A00F057
:10435000608102F580520F3222F47F6222F00F0258
:1043600011463046019200F059FCB0F1FF3F834600
:10437000019A00F05881824500F2FC80454B196893
:10438000DA451144196000F05381D9F80000DFF8D4
:1043900010E101301BBFCAEB0B0A5144CEF800B04C
:1043A00019601BF0070100F01781C1F10800C1F589
:1043B0008051834408315A44C2F30B02C2EB010915
:1043C00049463046019300F029FC431C019B00F054
:1043D0003F81CBEB00024A4442F001021968C7F862
:1043E00008B04944BC42CBF804201960DFF8A4901F
:1043F00016D0B8F10F0F40F2FD806268A8F10C03EF
:1044000023F00703E01802F001024FF0050E1A43F3
:104410000F2B6260C0F804E0C0F808E000F21C81D5
:104420001D4BBC681A68914288BF19601B4B1A6803
:104430009142626888BF196022F003029542A2EBA4
:10444000050301D80F2B04DC304600F0F5F90024F9
:1044500038E7621943F0010345F001056560304615
:10446000BA60536000F0E8F90834204603B0BDE8B4
:10447000F08F142B71D9542B00F2A480280B00F17B
:104480006F0E4FEA4E036E3076E600BFA08DFF1F21
:104490005496FF1F5896FF1F5096FF1F4C96FF1F04
:1044A000AC91FF1F5A0A042A5ED9142A00F2B38085
:1044B00002F15C0149005B3207EB810C57F82110D7
:1044C000DFF8DC81ACF1080C8C4500F088804A688C
:1044D00022F00302934202D289688C45F7D1D1F8C9
:1044E0000CC07A68C4F80CC0A160CCF80840CC605D
:1044F00088E6631942F0010745F001056560304622
:104500004B610B61C3F80CE0C3F808E05F609A50A0
:10451000083400F091F9D5E64A6873E608F101081D
:1045200018F0030F0CF1080C7FF47FAE30E0DC686C
:10453000A34208BF02303FF435AEB3E60B440C464D
:104540005A68C96854F8085F42F001025A60304660
:10455000E9608D6000F070F9B4E603F15C0E03F1E0
:104560005B004FEA4E0307E69A0902F13901490060
:104570003832A1E7BC424A4B3FF400AF9C68626806
:1045800022F003025AE759F80839994540F0828031
:1045900010F0030F00F1FF30F5D17B6823EA04032C
:1045A0007B6064009C423FF6BDAE002C3FF4BAAE87
:1045B0001C4240467FF435AE64001C4200F104000A
:1045C000FAD02EE6B3F5AA7F18D8E80B00F1780EE2
:1045D0004FEA4E037730CFE54FF48051EBE60121EF
:1045E000D8F80430921001FA02F21A43C8F80420F5
:1045F000614677E70123CBF8043025E740F25452B7
:10460000934220D8A80C00F17D0E4FEA4E037C3077
:10461000B2E51032A4E6542A26D81A0B02F16F0133
:1046200049006E3248E7BC68626822F0030205E781
:10463000CAF30B0000287FF4A8AE4244BB6842F0E6
:1046400001025A60ECE6FE234FF07F0E7E2093E5D8
:1046500001224FF00009C1E604F10801304600F0E4
:1046600077FCD9F80010DBE6B2F5AA7F05D8DA0BA3
:1046700002F17801490077321EE740F254518A4234
:1046800005D89A0C02F17D0149007C3214E7FE2125
:104690007E2211E77B6884E7E808431C5B00F8E5AD
:1046A000A08DFF1F82B049B15AB16BB113780B6076
:1046B0001278101C18BF012002B0704701A9002A0F
:1046C000F3D1104602B070476FF00100F4E700BF6D
:1046D0008842F0B50DD98B1898420AD28118002A69
:1046E00051D09A1A13F8014D01F8014D9342F9D1B6
:1046F000F0BD0F2A48D941EA00039B0746D100F1DB
:10470000100401F11003154653F8106C44F8106CB6
:1047100053F80C6C44F80C6C53F8086C44F8086CB3
:10472000103D53F8046C44F8046C0F2D03F1100392
:1047300004F11004E8D8A2F1100323F00F0302F0F3
:104740000F0E1033BEF1030F1944034421D91E1F6D
:104750000D467446043C55F8047B46F8047F032C50
:10476000F8D8AEF1040424F00304043423442144B3
:1047700002F0030262B1013B0A4411F8014B03F855
:10478000014F8A42F9D1F0BD0346F3E70346F2E751
:10479000F0BD7246EEE700BF70B4840746D0541EE9
:1047A000002A41D0CDB2034602E0621EE4B31446B3
:1047B00003F8015B9A07F8D1032C2ED9CDB245EA54
:1047C00005250F2C45EA054519D903F110022646A7
:1047D000103E0F2E42F8105C42F80C5C42F8085C68
:1047E00042F8045C02F11002F2D8A4F1100222F0A7
:1047F0000F0204F00F041032032C13440DD91E468F
:104800002246043A032A46F8045BFAD8221F22F013
:1048100003020432134404F003042CB1C9B21C4453
:1048200003F8011BA342FBD170BC7047144603463A
:10483000C2E700BF704700BF704700BF2DE9F04FCF
:10484000174683B0002900F0C1800E46814607F16B
:104850000B05FFF7EFFF56F804EC162D2EF00304BE
:10486000A6F1080840D810221546AF4241D894421C
:1048700075DAC94B996808EB04008842416800F07A
:10488000D98021F0010303445B68DB077DD51EF06E
:10489000010F35D039464846FFF74CFC0746E0B1DA
:1048A00056F8043C23F001034344A0F108029A4265
:1048B00000F04481221F242A00F23181132A00F2E1
:1048C0000481034632461168196051685960926844
:1048D0009A603146484600F03BFB4846FFF7ACFF84
:1048E000384603B0BDE8F08F25F00705002D2A46B5
:1048F000BBDA0C230020C9F8003003B0BDE8F08F0C
:1049000056F8083CC3EB080ADAF8043023F0030C2D
:1049100004EB0C039342BDDB5746DAF80C1057F852
:10492000080F221F242AC160886000F21781132A11
:1049300040F212813168CAF808107168CAF80C1088
:104940001B2A00F22B8108360AF11002316811602F
:1049500071685160B16891603E461C46D046631B49
:104960000F2B1DD8D8F8043003F00103234344442F
:10497000C8F80430636843F0010363604846FFF7FA
:104980005BFF304603B0BDE8F08F21F00301214406
:10499000914221DBC36882680C46D3609A60DEE7EF
:1049A000D8F8042008EB050102F00102154343F09A
:1049B00001020B44C8F804504A605A6842F00102F0
:1049C00008315A60484600F0C3FAD7E7114603B0F1
:1049D000BDE8F04FFFF7AEBB1EF0010F7FF45AAFFA
:1049E00056F8083CC3EB080ADAF8043023F0030C4D
:1049F00001EB0C0E96458BDBC36882685746D3608B
:104A00009A6057F8081FDAF80C30CB60221F242A6E
:104A1000996000F29980132A62D93368CAF8083085
:104A20007368CAF80C301B2A00F2A08008360AF11D
:104A3000100356E021F0030BA34405F11000834559
:104A400059DA1EF0010F7FF425AF56F8081CC1EBB0
:104A5000080ADAF8041021F0030CE34458453FF744
:104A600057AF5746DAF80C1057F8080F221F242AC0
:104A7000C160886000F2B480132A40F2A5803168DA
:104A8000CAF808107168CAF80C101B2A00F2AF802F
:104A900008360AF110023168116071685160B1681E
:104AA00091600AEB0501C5EB0B0242F0010299602F
:104AB0004A60DAF8043003F001031D434846CAF89F
:104AC0000450FFF7B9FE38465CE73368036073684B
:104AD00043601B2A27D800F1080306F10802F2E61A
:104AE0003B4632681A6072685A60B2689A603E4605
:104AF0007446D04633E708EB0501C5EB0B0B4BF0D2
:104B0000010299604A6056F8043C03F001031D431A
:104B1000484646F8045CFFF78FFE304632E73146E0
:104B2000FFF7D6FDD5E6B3688360F368C360242A37
:104B300028D000F1100306F11002C4E650F8043C3E
:104B400023F003031C440AE7314638467446D04636
:104B5000FFF7BEFD3E4602E73A46F7E631463846E5
:104B60001C46D046FFF7B4FD3E46F8E6B368CAF8E7
:104B70001030F368CAF81430242A1BD010360AF11A
:104B80001803AEE7336903617369436106F11802E4
:104B900000F1180397E600BFA08DFF1FB168CAF8A7
:104BA0001010F168CAF81410242A0FD010360AF138
:104BB0001802CBE63369CAF818307369CAF81C309A
:104BC00018360AF120038CE73A4664E73269CAF8DE
:104BD00018207269CAF81C2018360AF12002B5E6BE
:104BE000314638460193FFF773FD019B59E7B168E1
:104BF000CAF81010F168CAF81410242A03D010362D
:104C00000AF1180247E73269CAF818207269CAF82F
:104C10001C2018360AF120023DE700BF38B5074CCA
:104C20000023054608462360FBF7B0FF431C00D075
:104C300038BD2368002BFBD02B6038BD9496FF1F36
:104C400090F800F06DE9024520F007016FF0000CCC
:104C500010F0070491F820F040F049804FF0000474
:104C60006FF00700D1E9002391F840F000F108004F
:104C700082FA4CF2A4FA8CF283FA4CF3A2FA8CF387
:104C80004BBBD1E9022382FA4CF200F10800A4FAEE
:104C90008CF283FA4CF3A2FA8CF3E3B9D1E9042342
:104CA00082FA4CF200F10800A4FA8CF283FA4CF379
:104CB000A2FA8CF37BB9D1E9062301F1200182FA33
:104CC0004CF200F10800A4FA8CF283FA4CF3A2FA39
:104CD0008CF3002BC6D0002A04BF04301A4612BA47
:104CE000B2FA82F2FDE8024500EBD2007047D1E94A
:104CF000002304F00305C4F100004FEAC50514F0D9
:104D0000040F91F840F00CFA05F562EA05021CBFA9
:104D100063EA050362464FF00004A9E7F0B5ADF57C
:104D2000057D04AD00930F4613464FF4007403AAAB
:104D300029460394064600F061FD88B10446024608
:104D40003946039B304600F029F8AC42039004D06A
:104D50003046214600F0FCF803980DF5057DF0BDC6
:104D60004FF0FF30F9E700BF10B4044C13460A4679
:104D70000146206810BCFFF7D1BF00BF308CFF1F79
:104D800021B1FF2A04D80A700120704708467047F5
:104D90008A2303604FF0FF30704700BF70B50D46A7
:104DA000084C114606461A46284600232360FDF7A4
:104DB00005FD431C00D070BD2368002BFBD0336081
:104DC00070BD00BF9496FF1F2DE9F047254C256864
:104DD000D5F848410646884692469946C4B360686D
:104DE0001F2817DC431C76B104EB80050122C5F8AF
:104DF00088A0D4F8881182401143022EC4F888118B
:104E0000C5F808911ED00230636044F8208000206D
:104E1000BDE8F087144B03B34FF4C870FFF77AF97D
:104E20000446D0B1D5F84831002780E88800C5F89D
:104E3000484138460123C4F88871C4F88C71002EAB
:104E4000E1D0D1E7D4F88C110A43C4F88C21DAE719
:104E500005F5A674C5F84841C1E74FF0FF30BDE83D
:104E6000F08700BF8485000015410000024B13B19C
:104E7000024800F005B87047000000008D4E0000A9
:104E8000002301461A461846FFF79EBF38B5074D66
:104E9000074C2C1BA41005D0013C55F8043D984745
:104EA000002CF9D1BDE8384003F0C2BC000000007E
:104EB00000000000F8B5234F0C460646FFF7BAFC89
:104EC000BB685D6825F00305291B01F6EF7121F42D
:104ED0007F6121F00F01A1F58054B4F5805F07DBFD
:104EE00000213046FFF79AFEBB682B44984204D05D
:104EF0003046FFF7A1FC0020F8BD61423046FFF7C5
:104F00008DFE01300DD0104BBA6819682D1B45F08D
:104F100001053046091B55601960FFF78DFC012023
:104F2000F8BD00213046FFF779FEBA68831A0F2BCF
:104F3000DEDD064C0449246843F00103001B536086
:104F40000860D5E7A08DFF1F5896FF1FAC91FF1F8B
:104F5000002945D02DE9F0410D468046FFF76AFC57
:104F600055F8047C6A4927F00103A5F10804E2180A
:104F70008E685068B24220F0030062D0FE07506095
:104F80000BD455F8087CE41B01F1080EA5687545A3
:104F90003B446FD0E768EF60BD6015186D68ED07A2
:104FA00042D543F001026260E350B3F5007F18D2AE
:104FB000DB085A1C4D6851F83270A76001209B1025
:104FC00000FA03F301EBC2001D430838E0604D60B6
:104FD00041F83240FC604046BDE8F041FFF72CBC90
:104FE00070475A0A042A53D89A0902F139077F00F8
:104FF00002F1380501EB870051F8272044490838B1
:1050000090424DD0516821F003018B4202D2926848
:105010009042F7D1D068E060A2608460D4604046DE
:10502000BDE8F041FFF708BC95683A4FBD42034424
:105030003FD0D068E86043F0010285606260E350D1
:10504000B3E7FF07034407D455F8082CA41A134408
:10505000A068E268C26090602F4A126843F00100C5
:10506000934260608C60B6D32C4B40461968FFF7C2
:1050700021FFB0E711184968C90744D49168D26884
:10508000CA60034443F0010091606060E350A2E70E
:10509000142A17D802F15C077F0002F15B05A9E72B
:1050A000AA104B68012505FA02F213434B60024631
:1050B000B1E743F001024C610C61E560A5606260FC
:1050C000E35088E7542A06D81A0B02F16F077F00D5
:1050D00002F16E058EE7B2F5AA7F06D8DA0B02F16F
:1050E00078077F0002F1770584E740F2545082424E
:1050F00006D89A0C02F17D077F0002F17C0579E762
:10510000FE277E2576E743F001026260E35062E706
:10511000A08DFF1FA88DFF1FA891FF1F5496FF1F92
:10512000044A054B1268506B002808BF1846F0303F
:10513000704700BF308CFF1F348CFF1FFFFFFFFF45
:1051400001F0FF01102A2BDB10F0070F08D010F838
:10515000013B013A8B422DD010F0070F42B3F6D13C
:10516000F0B441EA012141EA014122F007047FF055
:1051700000070023F0E80256083C85EA010586EAAC
:10518000010685FA47F5A3FA87F586FA47F6A5FAE8
:1051900087F68EB9EED1F0BC01F0FF0102F00702F4
:1051A00032B110F8013B013A83EA010313B1F8D19F
:1051B0000020704701387047002D06BF3546033880
:1051C000073815F0010F07D1013015F4807F02BFB9
:1051D000013015F4C03F0130F0BC0138704700BF0A
:1051E000C36C70B505460C464BB153F8240080B132
:1051F000026843F8242000230361C36070BD2122AC
:10520000042100F02BFBE86403460028EDD10020C8
:1052100070BD012101FA04F6721D2846920000F0CB
:105220001DFB0028F3D044608660E4E731B1C36C15
:105230004A6853F82200086043F82210704700BF04
:10524000F0B50C6983B00D46064601F1140E002737
:10525000DEF8000081B202FB01310B0C000C02FBF6
:10526000003389B2013701EB0341BC424EF8041B05
:105270004FEA1343ECDC3BB1AA68944207DA05EB32
:105280008402013453612C61284603B0F0BD696883
:10529000019301313046FFF7A3FF2A69023205F17D
:1052A0000C01074692000C30FDF70AFBF26C6968AE
:1052B000019B52F82100286042F821503D46DEE76C
:1052C000030C1B04B3B90004102310F07F4F04BF7C
:1052D0000002083310F0704F04BF0001043310F0D7
:1052E000404F04BF80000233002807DB420003D494
:1052F000202070470023E8E7581C70471846704785
:10530000036813F0070207D0D90720D49A0720D4E6
:105310009B0803600220704799B209B91B0C102248
:1053200013F0FF0F04BF1B0A0832190704BF1B0943
:105330000432990704BF9B080232D90704D45B08E2
:1053400001D12020704701320360104670470020D1
:1053500070475B0803600120704700BF10B50C4622
:105360000121FFF73DFF01224461026110BD00BF32
:105370002DE9F04F0D691769BD4283B00C46164602
:1053800004DA2A4634463D460E461746A36861684D
:1053900005EB07089845C8BF0131FFF721FF00F171
:1053A000140C0CEB8809CC45009005D26346002113
:1053B00043F8041B9945FBD806F1140202EB870A57
:1053C00004F11403524503EB850E54D2CDF804903A
:1053D000994652F8043B1FFA83FBBBF1000F20D023
:1053E00000204F466646054600E01E4657F8044B2F
:1053F0003068A1B283B20BFB0131240C000C4B19B5
:105400000BFB040000EB134099B2334641EA004124
:10541000BE454FEA104543F8041BE6D8756052F8C4
:10542000043C5FEA134B20D0DCF800306746184696
:105430004D46002100E037462C88000C0BFB040091
:1054400001449CB23E4644EA014346F8043B786876
:1054500055F8044B83B2240C0BFB043404EB1143CA
:10546000AE454FEA1341E6D87B6092450CF1040C3F
:10547000AFD8DDF80490B8F1000F0BDD59F8043C0B
:10548000A9F104091BB105E059F8043D13B9B8F1BD
:105490000108F9D10098C0F8108003B0BDE8F08F82
:1054A00012F003032DE9F041144607462ED10E46B3
:1054B000A4101CD0BD6C95B3E3074FF0000806D4D0
:1054C000641014D02868A8B10546E307F8D52A4629
:1054D00031463846FFF74CFFB6B17268FB6C64107A
:1054E00053F82210316043F822600646EAD1304674
:1054F000BDE8F0812A4629463846FFF739FF286083
:10550000C0F800800546E0E70646D9E75A1E0B4D75
:10551000002355F82220FFF793FE0646C8E7012135
:105520003846FFF75DFE40F2712101220023416100
:1055300002610546B8640360BEE700BF68870000EB
:105540002DE9F04791460A698B684FEA691404EB2C
:10555000020808F101059D420E468246496804DDB5
:105560005B009D4201F10101FADC5046FFF738FE75
:10557000002C00F1140238DD02EB8403002142F814
:10558000041B9342FBD1346906F1140119F01F0981
:1055900001EB840E21D0C9F1200200240F6807FA24
:1055A00009FC4CEA04049C4643F8044B51F8044BB4
:1055B0008E4524FA02F4F1D8CCF804400CB108F17D
:1055C0000205DAF84C307268013D53F8221005618B
:1055D000316043F82260BDE8F087043B51F8042BAA
:1055E00043F8042F8E45F9D8EBE71346CBE700BF0D
:1055F00002690B69D21A12D19B001430143119447C
:1056000010B4034401E098420BD253F8044D51F812
:10561000042D9442F7D007D3012010BC70471046E8
:105620007047002010BC70474FF0FF30F5E700BF17
:105630002DE9F8430B690F4611695B1A002B904660
:1056400017D1890007F1140208F1140553182944F1
:1056500001E09A425ED253F8046D51F8044DA6421F
:10566000F7D060D23B46144647464FF001099846B2
:1056700006E05DDB07F1140502F114044FF00009A8
:105680007968FFF7ADFDD8F810303E69C0F80C908E
:1056900004EB830CA64605EB860700F114040023F7
:1056A0005EF8041B55F8048B8AB213FA88F3090CD0
:1056B0009A1AC1EB184303EB224392B242EA034227
:1056C000F44544F8042B4FEA2343E9D8AF4217D9F5
:1056D000A446294651F804EB13FA8EF2131403EB97
:1056E0001E4392B242EA03428F424CF8042B4FEA27
:1056F0002343EFD8ED433D4425F0030504352C4406
:10570000043C22B954F8043D013E002BFAD0066156
:10571000BDE8F8830021FFF763FD01220023026149
:105720004361BDE8F8832C464FF000091546A7E712
:105730003B4607F1140408F1140547464FF00109F0
:1057400098469DE72DE9F04182B001211C46C3F344
:105750000A571546089EFFF743FDC4F3130480461D
:105760000FB144F4801401941DB302A840F8085D01
:10577000FFF7C6FD002834D19DE80C00C8F81420BE
:10578000002B0CBF01210221C8F81830C8F81010F6
:10579000DFB908EB8103A0F2324030601869FFF7EF
:1057A0008FFD099BC0EB41101860404602B0BDE878
:1057B000F08101A8FFF7A4FD019BC8F81430012176
:1057C0002030C8F81010002FE3D0099BA7F2334710
:1057D0000744C0F1350037601860404602B0BDE8AC
:1057E000F0819DE80C00C0F1200103FA01F10A43A9
:1057F000C3400193C8F81420C2E700BF70B5154636
:105800009AB0146809B1002C1AD100244FF4227206
:10581000ADF80C20009404941A464FF6FF761E9BB8
:10582000029469460594ADF80E6001F009F800286D
:1058300011DB009B286000221A7004981AB070BD1A
:105840004FF4C16200910491ADF80C20E4DA8B238F
:1058500003600020F2E70020F0E700BF10B502FB74
:1058600001F1FEF767FC0446D8B150F8042C22F091
:105870000302043A242A18D8132A14D900231B2A15
:105880000360436016D9242A8360C36011BF00F10E
:1058900010020361436100F118020023136053609A
:1058A0009360204610BD0246F7E70021FEF774FF23
:1058B000204610BD00F10802EFE700BF02690B6946
:1058C000934200F38D802DE9F04F03F1FF3801F191
:1058D000140700F1140B57F828205BF828304FEA22
:1058E000880483B00132B3FBF2F90BEB040300949C
:1058F00007EB040A0193B9F1000F39D00025BC462B
:10590000DE462B465CF8046BDEF80020B4B209FBDF
:105910000455360C2C0C09FB0644ADB25B1BA6B239
:1059200013FA82F3C6EB124606EB23469BB243EA18
:105930000643E2454EF8043B4FEA14454FEA26433E
:10594000E0D2009B5BF8033093B9019C231F9B4579
:105950000CD254F8043C4BB9A4F1080302E01A68D5
:10596000043B1AB99B4508F1FF38F8D3C0F8108002
:105970000446FFF73DFE00282EDB09F101095D46D4
:10598000002357F8041B28688AB29A1A090C12FAE5
:1059900080F2C1EB104303EB224391B241EA034191
:1059A000BA4545F8041B4FEA2343EAD25BF82820A6
:1059B0000BEB880382B91A1F93450BD253F8042CC2
:1059C00042B9083B02E01A68043B1AB99B4508F14A
:1059D000FF38F8D3C4F81080484603B0BDE8F08F14
:1059E00000207047FFFFFFFF2DE9F04F016C97B0DB
:1059F0008146239C92469B4649B1426C4A600123F2
:105A000093408B60FFF712FC0023C9F84030BBF1D4
:105A1000000FD84633DB00232360A54B1A4608EA63
:105A20000303934214D05046594600220023FEF748
:105A300091F8054648B3229A01231360249B002B5A
:105A400000F0C5809B481860013817B0BDE8F08FA2
:105A5000229A42F20F731360BAF1000F00F0A28095
:105A60009548249B002BF0D0C378002B00F0B18028
:105A700000F10803249A136017B0BDE8F08F0123EA
:105A80002BF000482360C346C7E714AA15AB019268
:105A9000009352465B464846FFF754FE5FEA1854AF
:105AA000089040F08880149D159C2C4404F23243E9
:105AB000202B40F39182C3F1400304F2124008FA14
:105AC00003F82AFA00F040EA0800FDF765FD01231B
:105AD000013CA1F1F87110930022784BFDF71EFCF8
